:020000040800F2
:1000000080180020990200088D4E0008C13F0008AA
:1000100000000000000000000000000000000000E0
:10002000000000000000000000000000934E0008E7
:100030000000000000000000914E0008E54E00089E
:10004000AB02000800000000AB020008AB02000891
:10005000AB020008AB020008AB020008AB020008CC
:1000600000000000AB020008AB020008AB02000871
:10007000AB020008AB020008AB0200080000000061
:10008000AB020008AB020008AB020008AB0200089C
:10009000AB020008AB020008AB020008C53F000835
:1000A000AB020008AB020008AB020008A15E00082A
:1000B000AB020008B15E000800F002F800F0C1F8E1
:1000C0000CA030C8083824182D18671EA246AB466D
:1000D00054465D46AC4201D100F0B3F87E460F3E77
:1000E000B6460FCC0126334200D0FB1A3343A2465A
:1000F000AB4618479C690000BC690000103A02D367
:1001000078C878C1FAD8520701D330C830C101D5B8
:1001100004680C60704700000023002400250026BE
:10012000103A01D378C1FBD8520700D330C100D5B3
:100130000B60704710B56E2902D100F091FC10BD24
:10014000702902D100F0CBFD10BD662902D106F066
:1001500087FA10BD652902D106F082FA10BD672921
:1001600002D106F07DFA10BD612902D106F080FAB5
:1001700010BD03681B0A01D380231943692902D1EA
:1001800000F038FC10BD642902D100F033FC10BD32
:10019000752902D100F02EFC10BD6F2902D100F0AC
:1001A00049FD10BD782902D100F086FD10BDE92976
:1001B00002D100F0E5FC10BDE42902D100F0E0FC22
:1001C00010BDF52902D100F0DBFC10BDEF2902D1F2
:1001D00000F03CFD10BDF82902D100F07BFD10BD00
:1001E0000368DB0901D380231943632902D101F09D
:1001F000A0FA10BD732902D101F0A3FA10BDE329C2
:1002000002D101F0ADFA10BDF32902D101F0B0FA2C
:1002100010BD002010BD1FB50098019900F053FBE0
:1002200001F02EFB04000020002106F003FA401C20
:1002300060600020002106F0E7F9E0601FBD10B506
:1002400010BD01F0F6FA1146FFF7E5FF06F0E0F801
:1002500001F08AFE03B4FFF7F2FF03BC01F0BAFE1F
:1002600070B505460C46164602E00FCC0FC5103E91
:10027000102EFAD2082E02D303CC03C5083E042E5A
:1002800007D301CC01C5361F03E021782970641C17
:100290006D1C761EF9D270BD07488047074800479D
:1002A000FEE7FEE7FEE7FEE7FEE7FEE70448054956
:1002B000054A064B704700006D4F0008B900000862
:1002C000801200208018002080140020801400205C
:1002D00070B5064600F0DAFA056830460B30C408FF
:1002E000E400B44201D8002070BD68682A460028A6
:1002F00018D00168A14211D30B46214608318B4228
:1003000008D3436801194B6003681B1B0B605160E5
:10031000046001E041685160001D70BD0246406804
:100320000028E6D12146284600F0B8FA0028DCD1A2
:1003300070BD70B50446051F00F0A8FA0068002CD7
:100340001AD0446801E020466468002C01D0AC4219
:10035000F9D301680A18AA4204D12A680546891807
:10036000016000E0456028684119A14205D161683B
:10037000696021684018286070BD6C6070BD43439F
:10038000514330B55C18010C130C0D4692B25D431D
:1003900080B251432C19054655430A0C09044D19E6
:1003A00062415843010C00044019514130BDFEB573
:1003B000044610460D46184373D0A6468C460020CE
:1003C000A41A01469D4167D36646002701243D4695
:1003D000B61A9D4102D313463A4621246546764615
:1003E0002F04360C3E432D0CB61A9D4104D3150C38
:1003F0001B042B4312041034654676462F06360A3A
:100400003E432D0AB61A9D4104D3150E1B022B4301
:1004100012020834654676462F0736093E432D09F9
:10042000B61A9D4104D3150F1B012B431201241D45
:1004300065467646AF07B6083E43AD08B61A9D41FD
:1004400004D3950F9B002B439200A41C654676466F
:10045000EF0776083E436D08B61A9D411AD39218ED
:100460005B41641C16E00018764665464941B71AA0
:100470009D410191009009D36046B11A98418E4682
:100480008446009801990025401C6941DD07520807
:100490002A435B08641EE6D57246634603B0F0BD8E
:1004A000FFE72046284307D00020C0430146C0464E
:1004B000C04622462B46F1E700200146F7E7000040
:1004C0000FB41CB5084B06AA7B44694600900598FA
:1004D00000F0DFFA04460020694600F0EDFA2046FD
:1004E0001CBC08BC04B01847ED05000010B5024A5A
:1004F00000F0C6FC10BD00000000002030B505462D
:100500000B462A461C781078521C5B1C002801D030
:10051000A042F7D0002C03D0002802D06D1CEFE7DA
:10052000284630BD034670B502460B439B070FD1EA
:100530000E4CE60100E008C208C91D1B9D43354270
:10054000F9D0D9B21170521C00290DD01B0AF8E75E
:100550000B78491C1370521C002B05D00B78491CDA
:100560001370521C002BF3D170BD0000010101017A
:1005700030B5441C03E00178401C00290DD08107F0
:10058000F9D10B4BDD0104C8D11A91432940FAD0AF
:10059000001B0A0603D0C01E30BD001B30BD0A047C
:1005A00001D0801E30BD0902FCD0401E30BD0000CD
:1005B00001010101421E5378521C002BFBD10B7824
:1005C000491C1370521C002BF9D17047F8B5042A4E
:1005D0002CD3830712D00B78491C0370401C521E89
:1005E00083070BD00B78491C0370401C521E8307F5
:1005F00004D00B78491C0370401C521E8B079B0FC4
:1006000005D0C91ADF002023DE1B08C90AE0FFF766
:1006100027FEF8BD1D4608C9FD401C46B4402C43CA
:1006200010C0121F042AF5D2F308C91A521EF0D4C2
:100630000B78491C0370401C521EEAD40B78491CED
:100640000370401C012AE4D409780170F8BD01E070
:1006500004C0091F0429FBD28B0701D50280801C2E
:10066000C90700D00270704700290BD0C30702D021
:100670000270401C491E022904D3830702D5028060
:10068000801C891EE3E70022EEE70022DFE700007E
:10069000024670B50A4392072AD11E4DEE0104C8E6
:1006A00008C9541B9443344017D0D0B2D9B2401A71
:1006B0002106014310D190B299B2401A210401439E
:1006C0000AD110021902000A090A401A2102014344
:1006D00002D1100E190E401A70BD9A42DFD010BA26
:1006E00019BA884201D9012070BD0020C04370BDF5
:1006F00002780B78401C491C002A09D09A4207D185
:1007000002780B78401C491C002A01D09A42EFD095
:10071000D01A70BD01010101002203098B422CD3C4
:10072000030A8B4211D300239C464EE003460B4341
:100730003CD4002243088B4231D303098B421CD3A3
:10074000030A8B4201D394463FE0C3098B4201D395
:10075000CB01C01A524183098B4201D38B01C01ACD
:10076000524143098B4201D34B01C01A5241030944
:100770008B4201D30B01C01A5241C3088B4201D3F3
:10078000CB00C01A524183088B4201D38B00C01AA0
:10079000524143088B4201D34B00C01A5241411AC7
:1007A00000D201465241104670475DE0CA0F00D0AA
:1007B0004942031000D3404253409C4600220309A3
:1007C0008B422DD3030A8B4212D38901FC2212BA29
:1007D000030A8B420CD3890192118B4208D3890101
:1007E00092118B4204D389013AD0921100E0890919
:1007F000C3098B4201D3CB01C01A524183098B42FA
:1008000001D38B01C01A524143098B4201D34B01E2
:10081000C01A524103098B4201D30B01C01A524145
:10082000C3088B4201D3CB00C01A524183088B42CC
:1008300001D38B00C01A5241D9D243088B4201D355
:100840004B00C01A5241411A00D201465241104693
:1008500063465B1001D34042002B00D549427047EC
:1008600063465B1000D3404201B50549002802DC15
:10087000491C084000E00846C046C04602BD00BF13
:10088000FFFFFF7F704770477047000000487047C8
:1008900018000020704770477047704738B504460D
:1008A0000A4600206946C046C046002805D00246D8
:1008B0002046009900F00CFB012038BD10B5012046
:1008C00000F07BFF10BDF8B5C046C04605460020CD
:1008D0000C461020C0460646A819A0420DD9324643
:1008E00069460020C046C046070001D100F065FF00
:1008F0000098A04200D00546C419FFF7C7FFF61DB7
:1009000007460560F008C0004619284600F008F8C0
:10091000B44204D031463868A21B00F0D9FAF8BDC1
:10092000002101604160806070471020704770B501
:10093000044685690068C10601D5302600E02026FE
:10094000C00707D070BD62683046A1689047206A32
:10095000401C20626D1EF6D570BD70B504468569D9
:100960000078C00707D170BD6268A1682020904759
:10097000206A401C20626D1EF6D570BD09684A05CC
:1009800001D540B27047C905FCD500B2704709686F
:100990004A0501D5C0B27047C905FCD580B2704781
:1009A00070B50C460546012A05D02878800600D58A
:1009B000EA69002302E0012305E05B1C934202D2B6
:1009C000E05C0028F9D1A869E618C01AA861286A75
:1009D000C01828622846FFF7AAFF04E06A6820785A
:1009E000A968641C9047B442F8D32846FFF7B5FFC6
:1009F00070BD0000F7B5002575291068009914A690
:100A000011D0FFF7BBFF002802DA404211A608E030
:100A1000009909688A0701D50FA602E0490704D5A5
:100A20000EA6012501E0FFF7B2FF009F0024243746
:100A300004E000F0E9FE30313955641C0028F8D19B
:100A40002B4632462146009800F099FAFEBD000080
:100A5000000000002D0000002B000000200000001E
:100A600011680268006A530501D5087009E0D305D2
:100A700001D5088005E0130602D5C21705C100E0C4
:100A8000086001207047000001694A1C0261087873
:100A9000704700B58FB0029100210591054901937F
:100AA0007944039111460490684600F025F90FB08F
:100AB00000BD0000E5FFFFFF0A681070521C0A60CD
:100AC00070470000F7B50446154686B02B487844B9
:100AD000002703C83E460090019111E007986A463E
:100AE0007100415A02A800F047FE411C07D021784E
:100AF000890603D5E269391891420ED83F18761C51
:100B00002078800602D5E069B84206DDAE42E5DB1A
:100B100007987100405A0028E0D1A069C01BA0616D
:100B20002046FFF704FF154878445A3803C8009060
:100B30000020019116E041006A460798415A02A838
:100B400000F01AFE0590401C0AD0002505E06268FE
:100B500002A8A168405D90476D1C05988542F6D3B8
:100B60000498401CB0420490E5DB206AC019206262
:100B70002046FFF7F2FE09B0F0BD0000AE5B0000BA
:100B8000F7B5D21D0025D20815A6D200F52905CA51
:100B900011D0002A05DA00214042914111A60A46EF
:100BA00008E0009909688B0701D50FA602E0490704
:100BB00001D50EA601251146009F0024243704E02C
:100BC00000F0A0F930323A55641C02460A43F7D1CE
:100BD0002B4632462146009800F0D1F9FEBD0000B8
:100BE000000000002D0000002B000000200000008D
:100BF00070B504460021243408E05507D2086D0F73
:100C0000303565545D072A43DB08491C15461D43F2
:100C1000F3D10468002310A2250708D520252C4015
:100C20000C4304D0C46901230CA2641EC46100F00B
:100C3000A6F970BD10B5044621461068FFF7A7FE5F
:100C4000002302462046FFF7D3FF10BDD21DD10876
:100C5000C9000CC9CCE70000000000003000000013
:100C6000F8B50F460188090502D5224C7C4402E004
:100C7000204C7C440E3405460021243508E016073C
:100C80001209360FA65D6E541E0732431B09491C1C
:100C900016461E43F3D1224604780023240705D5C7
:100CA000702F06D0002901D00223113200F067F91D
:100CB000F8BD01231032F9E770B504460D46214610
:100CC0001068FFF764FE0023024629462046FFF71E
:100CD000C7FF70BDD21DD308DB000CCBC0E730B41A
:100CE000036820241268234303600823C36130BCD7
:100CF0000023B5E7185A0000F3B50446002081B080
:100D000020622046E1688847002872D0252802D05A
:100D10006268A168ABE0594F00267F442046E16835
:100D200088472028054608DB312D06D2781920385F
:100D30000078002801D00643F0E7B00701D5042071
:100D400086430020E0610746A0612A2D0AD028468C
:100D500005F052FC002827D0B8000019303D009063
:100D6000856119E00298BA00121902C891610290D7
:100D70002046E1688847012F054617D1E069002821
:100D80001FDA202086431CE000980A21806948432E
:100D900000994019303888612046E1688847054647
:100DA00005F02AFC0028EFD1012F0AD02E2D08D102
:100DB0002046E16888470546202006437F1C022F15
:100DC000C3DBA069002803DA4042A061012006438A
:100DD000F00701D0102086436C2D0BD0682D09D070
:100DE0004C2D3CD06A2D38D0742D38D07A2D36D089
:100DF00016E040E0E1682F4620468847B8420546A5
:100E000009D16C2F29D001208002E16806432046D9
:100E10008847054604E06C2F1DD0FF2001300643B3
:100E2000002D28D028464138192803D80120C002B7
:100E300006432035204626602946029A1646FFF7CB
:100E400079F9002810D001280BD0F61DF008C00059
:100E50000830029055E74020E1E78020D5E70020E8
:100E6000D3E7361D02964CE762682846A168904792
:100E7000206A401C44E7206AFEBD00009259000031
:100E8000F8B515460E46040003D12C68002C00D19D
:100E90000CA4204600F0A8FC0419207800280ED0ED
:100EA00027463146384600F08EFC04192078002889
:100EB00002D000202070641C38462C60F8BD00274A
:100EC000FAE7000000000000004870471000002012
:100ED00010B50346406801E003464068002801D091
:100EE0008842F9D31868C3188B4206D0CB1CD808A7
:100EF000C000001D411A521A0146081D0A60FFF782
:100F000018FA10BD0B4670B50246890780080843E1
:100F100019469D08141AA94125090807054308091F
:100F20002C194841250A01060D43010A2C1941419B
:100F3000200C0D0428430D0C00194D4100214019CF
:100F40004D41C00869070843E908840F8D00254317
:100F5000840024184D4124196D41121BAB4107E058
:100F60000925ED432C11521963410024401C6141B5
:100F70001C460A250026551BB441F1D270BDFFB5B1
:100F800004460D4681B0243000902168880604D5BF
:100F90001022E0699143216000E00120A84201DDB8
:100FA000471B00E000270498A1697A191018081A55
:100FB000A0612078C00602D42046FFF7B8FC0026C6
:100FC00008E003986268A168805D9047206A401C31
:100FD000761C206204988642F3DB2078C0060AD58E
:100FE0002046FFF7A4FC06E06268A1683020904725
:100FF000206A401C206238467F1E0028F4DC07E08F
:1010000000986268A168405D9047206A401C206299
:1010100028466D1E0028F3DC2046FFF79EFC207852
:10102000000602D5022005B0F0BD0120FBE700005C
:10103000FFB50C461E468FB003CA089009914F00B9
:101040007D0D00D16D1E002108460020C046032101
:10105000099A89050840002A03DA820080184008AE
:101060000840800D01280A9002DD0020C0430A904C
:10107000089807430DD0F048F04928184843071452
:10108000189800281DD07542291E1DDD0A9842427D
:101090001BE01898012802D00020302104E0002035
:1010A000F24305E02154401CB042FBDB30460022F5
:1010B000189B002121540F998B600A60486013B07F
:1010C000F0BDBD1B6D1CDFE70A9A002900DA6942FA
:1010D0000BA800F01DFC0BAB07CB03AB07C30899B3
:1010E000099800F081FC6B4607C30146D4480918F3
:1010F000002D00910BDDD24903980A9A494240180D
:10110000002303A90390684600F0DEFE08E003997F
:101110000A9A0023081803A90390684600F07EFE8F
:101120006B4607C30004000C03D00020C0434108F5
:1011300000E01046189A002A03D0002200921546BB
:101140001EE0751E05D4FFF7DDFE303262556D1EC0
:10115000F9D501220843079602D000227F1C04E043
:101160002078302801D100227F1E002A069787D0E0
:101170001EE0112D07DAFFF7C5FE303262556D1CF7
:1011800002460A43F5D1084303D00098002819D03D
:101190000EE00021681E05E0235C625C635422546B
:1011A000401E491C8142F7DBA81B401E0795069094
:1011B000079A18990020A0540F98079B069A8160FF
:1011C0000CC07CE711260020189059E7D21DF0B51D
:1011D0000D460446D10893B0C90003C90C900D9187
:1011E00005F0F4F902460D98C00F01D02D2007E05C
:1011F0002068810701D52B2002E04007C00F400185
:10120000032A0F9001D0072A05DB03462946204612
:1012100000F03AFB0EE12078800601D5E76900E096
:1012200006272846652D04D0662814D0672D69D17D
:101230002DE00020112F009001DB112300E07B1C2A
:101240000CAA03A910A8FFF7F3FE11990026109825
:101250007D1C0E9142E001203B460CAAC0070B907A
:101260000120009003A910A8FFF7E2FE119D12983B
:101270001099002600280E9501D1781C0D18781BB6
:1012800002D446427D1C761EE81B00903AE0012FF6
:1012900000DA01270020112F009001DD112300E06A
:1012A0003B460CAA03A910A8FFF7C2FE11993D46C0
:1012B000109800260E91217809070BD40E99A942A7
:1012C00000DA0D4603A9012D04DD4A19203AD27F28
:1012D000302A06D0B84201DA011D04DA012100915A
:1012E0000FE06D1EEFE7002802DC86192D1A03E0DF
:1012F000411CA94200DD0D46801B401C00900120CE
:10130000C0070B902078000705D40098A84202DBA4
:101310000020C043009069460020C8720B9801214C
:1013200002AF0337C907884225D0022010902B2036
:1013300011900B9800280BDA40420B902D20119051
:1013400006E00B9800F060FA30317F1E0B90397088
:101350001099481E00291090F3DC0B980028F0D15A
:1013600011987F1E38702088000501D5452000E0C7
:1013700065207F1E387001A8C01BC01D0B900F9800
:10138000002800D0012041190098C01709180B98B7
:101390000818A169081A401EA0612078C00602D46E
:1013A0002046FFF7C4FA0F98002805D06268A168AC
:1013B0009047206A401C20622078C00625D5204630
:1013C000FFF7B5FA21E0002E07DB0E98B04204DDEE
:1013D00003A86268805DA16802E06268A1683020AD
:1013E0009047206A761C401C20620098401E00280E
:1013F00000900AD100F044FAC06862680168405C5D
:10140000A1689047206A401C206228466D1E002873
:10141000D9DC07E062683878A1687F1C9047206AB1
:10142000401C20620B99481E00290B90F2DC2046DC
:10143000FFF793FA032042E601FCFFFF104D000086
:10144000E1DFFFFFD21DF0B504460D46D0088DB098
:10145000C000466807683146384605F0B7F80246CE
:10146000F00F01D02D2307E02068810701D52B2341
:1014700002E04007C00F43016846002B037001D013
:10148000012000E00020032A0A9001D0072A04DB93
:101490002946204600F0F8F92DE12078800601D495
:1014A0000D2500E0E5697000400D0D2D01904BDA2F
:1014B000300D00210B9008460020C046032189050D
:1014C0000840002E05DA82008018C20F1018401064
:1014D00008408015012801DD0020C043A900002339
:1014E000182906D39C460A460123183A1B07D34005
:1014F00003E001221205CA4094460C31202902D390
:101500003A46203900E032468A40002802DD002AAF
:1015100006D119E0002817D10121C9078A4213D347
:10152000194663467F185E41002806D10120C00796
:10153000824202D1084687439E430B98310D814277
:1015400002D00198401C01902088000502D5714905
:10155000794402E06F49794419396B460A98302280
:101560001A540A980A7C401C1A54401C0A9001988C
:10157000002801DC302000E031201872019A01209F
:10158000002A02D0644BD21804E072003A4302D021
:10159000614A521C0192002D02DC2278120703D509
:1015A0006A462E20507202200022864694460CE0A5
:1015B00032033601120F6D1E8B5C02AA1354624671
:1015C000521C401C9446052A01DA002DF0DC002252
:1015D00002AE08E03B0F3F01CB5C521C6D1E335442
:1015E000401C082A01DA002DF4DC23689A0601D594
:1015F00011E0401E704504DD3218203AD27F302AB7
:10160000F7D0002807DD3218203AD27F2E2A02D1E7
:101610001A0700D4401E002D03DD3E223254401C28
:101620006D1E497C31540199401C002906DA2D2198
:10163000471C315401984042019003E02B21471C84
:10164000315401987D21C900884206DBFFF76EF80E
:101650003030F0557F1C019101E0642808DB0198CF
:101660006421FFF763F83030F0557F1C019101E0F1
:101670000A2806DB01980A21FFF758F83030F055A8
:101680007F1C01980A21FFF751F83031F1550A9873
:10169000A1697F1C7A191018081AA0612078C00669
:1016A00002D42046FFF743F9216A6E460A980818CB
:1016B000206204E062683078A168761C90470A983E
:1016C000401E0A90401CF5D12078C00602D5204665
:1016D000FFF72DF902AE09E03078761C3E280DD0D8
:1016E0006268A1689047206A401C20627F1EF3D286
:1016F0002046FFF732F90DB00320F0BD206A4019F3
:10170000206203E06268A168302090476D1EEDD32F
:10171000F8E700008051000001FCFFFF10B54369AD
:10172000002B02D0C046C04601E0FFF739F9012086
:1017300010BD1278014624310A7000224A7001223D
:10174000ECE711680022D243E8E710B54369002BAB
:1017500002D0C046C04601E0FFF7B4F9012010BD39
:1017600012880146243182840022C2840122ECE7DF
:1017700011680022D243E8E7F8B516460C46054644
:1017800000F076F80368FF200230C05C012807D023
:10179000FF2C0FD8185D00280CD001202C70F8BD4C
:1017A000FF333246214608331868C71828460023FD
:1017B000B847F8BD0020C043F8BD10B500F0E2FB0B
:1017C00000F0DAFB10BD30B503461D78002D03D0C4
:1017D0000A4603E0AC4201D1181A30BD1478521CFD
:1017E000002CF7D15B1CF0E730B503461D78002DC7
:1017F00008D00A461478521C002C03D0AC42F9D110
:101800005B1CF3E7181A30BD01468008081A02096C
:101810001018020A1018020C1018C00882001218C2
:101820005200891A01E0401C0A390A29FBD270478C
:1018300070477546FFF748FBAE46050069465346BC
:10184000C008C000854618B020B5FEF72FFD60BC6B
:10185000B64600260027C0C5C0C5C0C5C0C5C0C5A6
:10186000C0C5C0C5C0C5403D490849008D46704748
:1018700010B500F005F8001D10BD00BFB94D000007
:101880000048704730000020F8B51F460446012389
:101890000068DB02032601461840072A05DB002802
:1018A00001D017A506E017A504E0002801D016A571
:1018B00000E016A5102081432160A069C01E002F02
:1018C000A06101D0401EA0612046FFF730F8002F34
:1018D00009D038466268A1689047206A401C20629F
:1018E000C01C206206E0206AFAE762682878A168D6
:1018F0006D1C9047761EF8D22046FFF72EF8F8BDF3
:101900004E414E006E616E00494E4600696E6600A3
:10191000F7B516468AB0334878446C4603467C33A4
:10192000C06F5A689B680DC42E487844763003AC6B
:101930000DC80DC43720C001081837211B30FEF731
:10194000F5FE05460C46803D1B3C02D56442012055
:1019500000E000200027099010E0E0070CD00C20E8
:1019600020497843794432464C394118684601236E
:1019700000F054FA6B4607C364107F1C002CECD1B6
:10198000184F7F442E3F16E0E80712D02001C019FF
:101990000EC80691089307920068F04201D1981989
:1019A00008903246012306A903A800F037FA03ABDA
:1019B00007C36D10641C002DE6D10998002806D0DD
:1019C00032466946012303A800F07EFA05E00123B0
:1019D0003246694603A800F021FA0A9B07C30DB0FE
:1019E000F0BD0000CC4D0000034640000A4610B593
:1019F000400D0BD00121C9070F24A40200191C03BC
:101A000064082143540D2143D20207E00021012044
:101A1000F2E7D40F490021435200401E0029F8DAB2
:101A2000DB0FDB07184310BDFFB50D46144685B02C
:101A30004868516804F0B2FD00910190A868A1685F
:101A400004F0ACFD02910390A868616804F0A6FD63
:101A5000029A12188242029201D2012000E0002074
:101A6000019A0B18D2180028019202D08A4202D99A
:101A700003E08A4201D2012000E00020009908180A
:101A800000906868A16804F089FD029A12188242E9
:101A9000029201D2012000E00020019A0B18D21816
:101AA0000028019202D08A4202D903E08A4201D280
:101AB000012000E0002000990818009028682168A3
:101AC00040004900400849084018FA49471814E006
:101AD00001994000C90F0843009001980299400005
:101AE000C90F08430190029803994000C90F0843A9
:101AF0000290039840007F1E039000980028E7DAC8
:101B00000898002801D0EC4E00E00026B74201DA28
:101B1000012000E00020002804902AD0F71BF806DE
:101B2000C00E15D0029B2021091A039A8B401A433C
:101B30000392029A019BC2408B401A430292019A7F
:101B4000009BC2408B4000991A430192C140009112
:101B50007B110DD06F460320C11A03D500218200EE
:101B6000B95003E08A008100BA587A50401EF3D57C
:101B7000374603980299002800D0012001430898B5
:101B80000291002808460CD0002800D001200199BD
:101B9000019A490508430121D20AC902D2020192E1
:101BA00000E001210E9B0122D207012B02D0002B65
:101BB00003D013E0002807D120E0904204D89042DF
:101BC0000CD1019B0B4209D0019B5918019105D101
:101BD0000099491C009101D17F1C009200280DD072
:101BE000102108460020C0460498002806D00F980F
:101BF000002803D0082108460020C0462868216834
:101C0000019B009A4840C10F0598C90739430EC08F
:101C100009B0F0BDFFB587B0099A089808995368D4
:101C20009268406889689646002203931746944656
:101C3000089A12685300099A5B0812685200520809
:101C40009A1A9E4BD4180A9A002A01D0352200E035
:101C5000402206920022012315460492DB070593D9
:101C600024E0002D05D175460346039E4D1BB3416C
:101C700009D375466646039B491B049D9841059B05
:101C80007519AC465F4163463B4308D0059B049EF3
:101C9000DD0776082E435B080496059301E0521E8B
:101CA000641EC50FED0749184041521C069B9A421D
:101CB000D7DB002D04D17546039A6B1A824101D2FD
:101CC00003200CE0039A0B466B404240134303D0C1
:101CD000014303D0012002E0022000E00020614621
:101CE00001910021009702910A99002905D06146CF
:101CF00040020143704B019102E0800700230290F3
:101D00009C4201DA012000E0002007003AD01A1BB3
:101D1000D006C00E15D0029D2021019C091AC54095
:101D20008C402543029C8C4000D001242543019C1B
:101D30000295009DC4408D4000992C430194C14000
:101D4000009154111DD06D460221002202290CD1B0
:101D50000320001B07E0002804DB8600AE59002E9C
:101D600000D00122401C0328F5DB081B02D58800A7
:101D70002A5004E08000285810438A00A850491EC9
:101D8000E3D51C460A98002802980CD0002800D001
:101D900001200199019A490508430121D20AC9028B
:101DA000D202019200E00121109B0122D207012BF7
:101DB00002D0002B03D013E0002807D11FE090428F
:101DC00004D890420CD1019B0B4209D0019B5918B9
:101DD000019105D10099491C009101D1641C009228
:101DE00000280CD0102108460020C046002F06D045
:101DF0001198002803D0082108460020C046089802
:101E00000999019A009B006809684840C10F07982A
:101E1000C907214382600AC00BB0F0BD00B585B090
:101E2000019300920A460146002302A8FFF7FCFD39
:101E300002A807C805B000BDFFB50A461F4685B019
:101E40000799019301230091014602A8FFF7ECFDD9
:101E500002990398049ECA0F4900D20700920F22EC
:101E6000490892028C1A0021002800DB0C4645002C
:101E700013486D08844214D3079A002A04DA441EDA
:101E80000026104DF64302E004460D460E46102192
:101E900008460020C046002F03D004210846002039
:101EA000C0462005E90A0843009908436905F20A7B
:101EB0001143ADE602C0FFFF013C0000FF3F000000
:101EC000FF070000FFFFFF7F00B585B00193009280
:101ED0000A460146002302A8FFF79CFE02A807C895
:101EE000A8E7FFB50A461F4685B00799019301236D
:101EF0000091014602A8FFF78DFE02990398049E07
:101F0000CA0F4900D20700920F22490892028C1A88
:101F10000021002800DB0C46450011486D08844272
:101F200014D3079A002A04DA441E00260D4DF64306
:101F300002E004460D460E46102108460020C04629
:101F4000002F03D0042108460020C0462005E90ADE
:101F50000843009908436905F20A114358E6000056
:101F6000FF070000FFFFFF7F10B50446C046C046D4
:101F70002046FEF76FF910BD10B5002801D000F023
:101F800029F810BD10B5012805D0002103A000F0EC
:101F900027F8012010BD09A1F8E700005349475276
:101FA000544D454D3A204F7574206F662068656129
:101FB00070206D656D6F7279000000003A204865F1
:101FC0006170206D656D6F727920636F72727570CC
:101FD0007465640001491820ABBEFEE726000200CC
:101FE00070B505460C460A2000E06D1C00F012F8A2
:101FF000002D06D028780028F7D102E0641C00F0FC
:1020000009F8002C02D020780028F7D10A2000F02F
:1020100001F870BD08B5694608700320ABBE08BD65
:1020200080B50C4804F050FA0B4804F04DFA0B4808
:1020300000F0B6F80A4804F047FA0A4804F044FAF7
:10204000094804F041FA094804F03EFA084800F053
:10205000A7F880BD486800080168000888130000E0
:10206000A4680008B768000881680008386800089C
:10207000204E000081B0EFF3108072B60090FFE7B1
:10208000FEE7000080B5064804F01EFA7D20C0007F
:1020900000F086F801225103024800F029FA80BDC1
:1020A0002A6800080004004882B0009000982121AE
:1020B000405C02280DD0FFE7009904208863FFE709
:1020C0000099202200208854FFE701A90120087010
:1020D0001FE00098016808680E229043086000988D
:1020E0000268116801208143116000990A6C9040D8
:1020F000C96B4860FFE70099212201208854FFE75F
:102100000099202200208854FFE701A900200870D0
:10211000FFE701A8007802B0704780B582B0019057
:1021200069460020087001982121405C022807D0F0
:10213000FFE701990420886369460120087024E0C4
:102140000198016808680E229043086001980268AF
:102150001168012081431160019A136C0146994076
:10216000D26B5160019921228854FFE70199202206
:1021700000208854FFE70198406B002804D0FFE757
:102180000198416B8847FFE7FFE76846007802B097
:1021900080BD81B0009000982121405C01B0704763
:1021A00080B584B0039000F0B9F9029003980190D3
:1021B0000198401C002806D0FFE7094801780198E3
:1021C00040180190FFE7FFE700F0A8F90299401AD4
:1021D0000199884201D2FFE7F6E704B080BDC0460E
:1021E000080000208BB00A90099100200890FFE7BA
:1021F000099800680899C840002800D152E1099860
:102200000068089A0121914008400790079800282B
:1022100000D143E10998406803210840012807D014
:10222000FFE7099840680321084002282CD1FFE706
:102230000A9880680690089840000321814006981B
:10224000884306900998C168089840008140069824
:102250000843069006980A9988600A984068069094
:1022600008980121814006988843069009984068A3
:1022700010210840010908988140069808430690FB
:1022800006980A994860FFE70998406803210840CA
:10229000032816D0FFE70A98C06806900898400007
:1022A0000321814006988843069009988168089820
:1022B0004000814006980843069006980A99C86035
:1022C000FFE70998406803210840022820D1FFE772
:1022D0000A980899C90889004018006A0690089869
:1022E0004007C00E0F218140069888430690099848
:1022F000016908984007C00E81400698084306907F
:1023000006980A99089AD208920089180862FFE78D
:102310000A980068069008984100032002468A4007
:10232000069991430691099949680140089840002F
:10233000814006980843069006980A990860099813
:1023400080798007002800D1A7E0FFE7564802689F
:1023500001210A4302600068084005900598FFE7E4
:1023600008980321884351494058069008988007EF
:10237000000F0F2181400698884306900A98092192
:10238000C906884203D1FFE70020049022E00A98A2
:102390004749884203D1FFE70120039017E00A98DC
:1023A0004449884203D1FFE7022002900CE00A99D9
:1023B000414A0320052300939142019001D00098E7
:1023C000019001980290FFE702980390FFE70398BD
:1023D0000490FFE7049908988007000F8140069851
:1023E0000843069006980899032291432F4A885083
:1023F0003248006806900799069888430690099825
:102400008079C006002805D5FFE70799069808439C
:102410000690FFE706982949086029480068069059
:1024200007990698884306900998807980060028C5
:1024300005D5FFE70799069808430690FFE7069839
:102440001F4908601F48006806900799069888434E
:102450000690099880798007002805D5FFE707993D
:10246000069808430690FFE7069816490860164844
:102470000068069007990698884306900998807925
:10248000C007002805D0FFE7079906980843069083
:10249000FFE706980C490860FFE7FFE70898401C33
:1024A0000890A5E60BB070471810024008000140E4
:1024B0000004004800080048000C004808040140DF
:1024C0000C040140040401400004014083B0029068
:1024D00001A80180029949690091009A018810467B
:1024E00008400004914340180299886103B0704786
:1024F00083B0029001A8018068460270007800282D
:1025000005D0FFE701A800880299886104E001A8CE
:10251000008802998862FFE703B0704701480068AD
:102520007047C0467812002010B583B0019000912A
:1025300001984121405C202839D1FFE7FFE701984D
:102540004021405C012804D1FFE702A90220087065
:1025500031E00199402201208854FFE7FFE701990B
:102560004122242088540198016808680123984377
:1025700008600198016808681C03A0430860009C7B
:10258000019801680868204308600198016808689C
:1025900018430860019920208854FFE701994022E0
:1025A00000208854FFE702A90020087003E002A978
:1025B00002200870FFE702A8007803B010BD84B0C5
:1025C0000290019102984121405C20283FD1FFE711
:1025D000FFE702984021405C012804D1FFE703A9EE
:1025E0000220087037E00299402201208854FFE75A
:1025F000FFE7029941222420885402980168086864
:1026000001239843086002980068006800900098D1
:102610000F210902884300900198010200980843A5
:10262000009000980299096808600298016808689B
:1026300018430860029920208854FFE7029940223D
:1026400000208854FFE703A90020087003E003A9D5
:1026500002200870FFE703A8007804B0704781B03B
:10266000009001B0704783B0029001A801706846E5
:10267000028003B0704780B584B00390039800686F
:1026800080690290039800680068019002A8407871
:10269000C007002810D0FFE701A80078C009002873
:1026A0000AD0FFE7039A516C01200143516403995A
:1026B00009680002C861FFE702A8407804210840C9
:1026C0008008002811D0FFE701A80078C009002881
:1026D0000BD0FFE70399486C082210434864039825
:1026E000016801208002C861FFE702A8407802214A
:1026F00008404008002811D0FFE701A80078C00971
:1027000000280BD0FFE70399486C0222104348646D
:102710000398016801204002C861FFE70398406CFC
:102720000090684600780B21084205D0FFE7039827
:10273000009901F099FDFFE704B080BD80B584B039
:10274000039003980068806902900398006800680D
:1027500001900398406B002806D0FFE70398436B75
:102760000299019A9847FFE704B080BD81B00090BC
:1027700001B0704780B582B000900098002804D165
:10278000FFE701A90120087074E000984121405C36
:10279000002808D1FFE700994022002088540098C3
:1027A00000F072F8FFE70099412224208854009835
:1027B00001680868012290430860009948680F2367
:1027C0001B06984309680861009801688868D2036D
:1027D000904388600098C068012808D1FFE70099FD
:1027E00088680122D20310430968886007E00099D5
:1027F000886821229202104309688860FFE70098E8
:10280000C068022806D1FFE7009801680120C002D5
:102810004860FFE7009801684868184A104348601C
:1028200000980168C8680122D3039843C8600099E2
:1028300008694B6918438B691B0218430968C86013
:102840000099C8690B6A1843096808600098016814
:10285000086810430860009900204864009A4123EA
:102860002021D1540099086300994222885401A97B
:102870000870FFE701A8007802B080BD0080000268
:1028800081B0009001B0704780B58AB009900020F7
:1028900008900790069005900490099800681B49DD
:1028A000884230D1FFE7FFE7194802680121890417
:1028B0000A4302600068084003900398FFE7C020C5
:1028C000049012200590002006900320079001201C
:1028D0000890104804A9FFF785FCFFE7B948026893
:1028E000012149050A4302600068084002900298ED
:1028F000FFE7172001900022114600F08EF80198A2
:1029000000F080F8FFE70AB080BDC04600540040E8
:10291000141002400004004881B0009001B07047DC
:1029200081B0009001B070472648027802490868DB
:10293000801808607047C0467812002080B50649AC
:102940000868102210430860032000F007F800F028
:102950003DF8002080BDC0460020024080B584B014
:102960000290174800680190164801787D20C00049
:10297000FDF7D2FE01460198FDF7CEFE00F0DEFD28
:10298000002804D0FFE703A90120087014E0029892
:10299000032809D8FFE702990022D04300F03DF850
:1029A00002980949086003E003A90120087003E0C8
:1029B00003A900200870FFE703A8007804B080BDD9
:1029C00004000020080000200C00002082B0FFE777
:1029D0000B48026801210A43026000680840019028
:1029E0000198FFE7FFE777480268012109070A43DA
:1029F00002600068084000900098FFE702B070474E
:102A00001810024080B582B0014601A80170002173
:102A1000405603F06DFA02B080BD80B584B0034625
:102A200003A803700291019200214056029903F01D
:102A300075FA04B080BD000080B586B00490002017
:102A40000390029004988078C007002800D193E09A
:102A500001A9002008705B480068C000002810D45D
:102A6000FFE7FFE757480268012109070A430260B0
:102A70000068084000900098FFE701A90120087055
:102A8000FFE751480068C00500281DD4FFE74E4904
:102A900008680122120210430860FFF73FFD03900F
:102AA000FFE749480068C00500280CD4FFE7FFF79E
:102AB00035FD0399401A652804D3FFE705A90320D3
:102AC00008707BE0EDE7FFE740480068032109025A
:102AD000084002900298002838D0FFE70298049935
:102AE000496803221202114088422FD0FFE737497C
:102AF000086803221202904302900868012212041F
:102B0000104308600868904308600298086002A8B3
:102B10000078C007002818D0FFE7FFF7FFFC0390FC
:102B2000FFE72A480068800700280DD4FFE7FFF779
:102B3000F5FC0399401A9649884204D3FFE705A99A
:102B4000032008703AE0ECE7FFE7FFE71F49086859
:102B5000032212029043049A52681043086001A8AD
:102B60000078012807D1FFE71649086801221207FB
:102B700090430860FFE7FFE704980078C00700284B
:102B800009D0FFE71249086803229043049A92682B
:102B900010430860FFE7049800788006002809D5F4
:102BA000FFE70B49086810229043049AD26810434B
:102BB0000860FFE705A900200870FFE705A8007876
:102BC00006B080BD1C100240007000402010024082
:102BD0003010024080B584B0029001910298002824
:102BE00004D1FFE703A901200870C7E001986549F7
:102BF000096801221140884212D9FFE76148026842
:102C000001218A43019B1A43026000680840019930
:102C1000884204D0FFE703A901200870AEE0FFE777
:102C2000029800788007002816D5FFE70298007800
:102C30004007002807D5FFE78B49086807221202E2
:102C400010430860FFE788490868F0229043029A21
:102C5000926810430860FFE702980078C0070028D8
:102C600050D0FFE70298406801280BD1FFE74648A3
:102C700000688003002804D4FFE703A9012008703E
:102C80007CE01BE00298406802280BD1FFE73E4839
:102C900000688001002804D4FFE703A90120087020
:102CA0006CE00AE0384800688007002804D4FFE799
:102CB00003A90120087061E0FFE7FFE76A4908689F
:102CC00003229043029A526810430860FFF726FCE3
:102CD0000090FFE7644800680C21084002994968A9
:102CE000890088420DD0FFE7FFF718FC0099401AD1
:102CF0002749884204D3FFE703A9032008703DE079
:102D0000E8E7FFE701981F4909680122114088425E
:102D100012D2FFE71B48026801218A43019B1A4334
:102D20000260006808400199884204D0FFE703A9C7
:102D30000120087022E0FFE7029800784007002891
:102D40000AD5FFE748490868072212029043029A11
:102D5000D26810430860FFE700F032F84249096882
:102D6000C9B20A090949895CC8400C4908600320B6
:102D7000FFF7F4FD03A900200870FFE703A800781F
:102D800004B080BD00200240001002407C670008B3
:102D900089130000014800687047C0460400002005
:102DA00080B5FFF7F7FF304909680722120211408A
:102DB0000A0A0249895CC84080BDC0468C67000889
:102DC00080B586B000200590049003900290019099
:102DD00025480068059005980C21084000900028BF
:102DE0003BD0FFE70098042804D0FFE700980828AC
:102DF00003D033E02048019033E005990F2082048E
:102E000011408A0C1949895C0291194909680140ED
:102E10001848405C049005980321C903084001212B
:102E2000090488420BD1FFE7049A1348002319468E
:102E3000FDF7BDFA029AFDF7A2FA03900AE0049AA0
:102E40000D4800231946FDF7B2FA029AFDF797FAEA
:102E50000390FFE70398019003E0FFE70648019025
:102E6000FFE7019806B080BD041002409467000897
:102E70002C100240A467000800127A0080B588B0C8
:102E800006900698002804D1FFE707A901200870E2
:102E90003EE306980078C007002800D197E0FE487E
:102EA00000680C210840042811D0FFE7FA480068A8
:102EB0000C21084008281AD1FFE7F74800680321D1
:102EC000C903084001210904884210D1FFE7F348F3
:102ED00000688003002809D5FFE7069840680028AD
:102EE00004D1FFE707A90120087011E36EE0FFE7B6
:102EF00006984068012807D1FFE7E84908680122E1
:102F00001204104308602CE00698406800280BD19A
:102F1000FFE7E24908680122130498430860086843
:102F20009204904308601BE00698406805280BD186
:102F3000FFE7DA490868012293041843086008682B
:102F40001204104308600AE0D449086801221304FF
:102F5000984308600868920490430860FFE7FFE721
:102F6000FFE7FFE706984068002817D0FFE7FFF764
:102F7000D5FA0590FFE7C9480068800300280CD403
:102F8000FFE7FFF7CBFA0599401A652804D3FFE75E
:102F900007A903200870BBE2EDE716E0FFF7BEFAD1
:102FA0000590FFE7BD480068800300280CD5FFE7C7
:102FB000FFF7B4FA0599401A652804D3FFE707A97B
:102FC00003200870A4E2EDE7FFE7FFE7FFE70698BC
:102FD0000078800700287AD5FFE7AF48006800072F
:102FE000800F002811D0FFE7AB4800680C21084093
:102FF000082824D1FFE7A84800680321C903084036
:103000000121C90388421AD1FFE7A448006880075C
:10301000002809D5FFE70698C068012804D0FFE71B
:1030200007A90120087073E29C490868F8229043C0
:10303000069A1269D20010430860FFE746E006983E
:10304000C068002825D0FFE7944908680122104392
:103050000860FFF763FA0590FFE790480068800773
:1030600000280CD4FFE7FFF759FA0599401A032806
:1030700004D3FFE707A90320087049E2EDE7874979
:103080000868F8229043069A1269D200104308603B
:103090001BE082490868012290430860FFF73EFA6E
:1030A0000590FFE77D480068800700280CD5FFE702
:1030B000FFF734FA0599401A032804D3FFE707A95C
:1030C0000320087024E2EDE7FFE7FFE7FFE706983B
:1030D0000078000700283ED5FFE70698C069002861
:1030E0001CD0FFE76E490868012210430860FFF713
:1030F00015FA0590FFE76A480068800700280CD49D
:10310000FFE7FFF70BFA0599401A032804D3FFE7FE
:1031100007A903200870FBE1EDE71BE060490868A0
:10312000012290430860FFF7F9F90590FFE7FC489A
:103130000068800700280CD5FFE7FFF7EFF9059935
:10314000401A032804D3FFE707A903200870DFE132
:10315000EDE7FFE7FFE7069800784007002800D476
:10316000BBE002A900200870EE480068C0000028FB
:1031700010D4FFE7FFE7EB480268012109070A4383
:1031800002600068084001900198FFE702A9012051
:103190000870FFE7E4480068C00500281DD4FFE779
:1031A000E14908680122120210430860FFF7B6F9EE
:1031B0000590FFE7DC480068C00500280CD4FFE755
:1031C000FFF7ACF90599401A652804D3FFE707A972
:1031D000032008709CE1EDE7FFE7FFE706988068B1
:1031E000012806D1FFE7D149086801221043086091
:1031F00029E00698806800280AD1FFE7CB490868D3
:10320000012290430860086804229043086019E096
:103210000698806805280AD1FFE7C4490868042297
:1032200010430860086801221043086009E0BF49A4
:1032300008680122904308600868042290430860EF
:10324000FFE7FFE7FFE7FFE706988068002818D050
:10325000FFE7FFF763F90590FFE7B44800688007D0
:1032600000280DD4FFE7FFF759F90599401AB04936
:10327000884204D3FFE707A90320087048E1ECE780
:103280001EE0FFF74BF90590FFE7A84800688007AC
:10329000002814D506E0C046041002400010024089
:1032A00024100240FFF73AF90599401AA0498842D4
:1032B00004D3FFE707A90320087029E1E5E7FFE74A
:1032C00002A80078012807D1FFE796490868012283
:1032D000120790430860FFE7FFE706980078C006F2
:1032E000002864D5FFE706984069012829D1FFE747
:1032F00090490868042210430860086801221043BE
:103300000860FFF70BF90590FFE78A48006880071F
:1033100000280CD4FFE7FFF701F90599401A0328AC
:1033200004D3FFE707A903200870F1E0EDE7814926
:103330000868F8229043069A9269D2001043086008
:1033400034E006984069401D00280ED1FFE7794916
:1033500008680422904308600868F8229043069A9F
:103360009269D200104308601FE072490868042285
:10337000104308600868012290430860FFF7CEF808
:103380000590FFE76B480068800700280CD5FFE731
:10339000FFF7C4F80599401A032804D3FFE707A9EB
:1033A00003200870B4E0EDE7FFE7FFE7FFE70698CA
:1033B000006A002800D1A7E0574800680C210840A7
:1033C000082871D0FFE70698006A02284ED1FFE76F
:1033D000524908680122120690430860FFF79EF8E0
:1033E0000590FFE74D480068800100280CD5FFE7F5
:1033F000FFF794F80599401A032804D3FFE707A9BB
:103400000320087084E0EDE7FFE74B4908680F22CE
:103410009043069AD26A104308603F4908687B22AD
:10342000D2039043069B9A6A5B6A1A431043086072
:10343000FFE73A4908680122120610430860FFF7C7
:103440006DF80590FFE735480068800100280CD42E
:10345000FFE7FFF763F80599401A032804D3FFE755
:1034600007A90320087053E0EDE71CE02B4908682A
:103470000122120690430860FFF750F80590FFE71D
:1034800026480068800100280CD5FFE7FFF746F8C2
:103490000599401A032804D3FFE707A90320087001
:1034A00036E0EDE7FFE72EE00698006A012804D138
:1034B000FFE707A9012008702AE017480068049078
:1034C0001D480068039004980321C9030840069929
:1034D000496A884211D1FFE703980F2108400699F5
:1034E000C96A884209D1FFE704980F21890408407E
:1034F0000699896A884204D0FFE707A9012008706D
:1035000006E0FFE7FFE7FFE707A900200870FFE7F5
:1035100007A8007808B080BD0410024000100240E7
:10352000241002401C100240007000402010024095
:1035300089130000341002402C10024080B582B084
:103540000190019801F0A6FC02B080BD82B001900C
:103550006846018002B0704781B0009001B07047AA
:1035600080B5A8B00F900F980068C0690E900F98B2
:10357000006800680D900F98006880680C900E98A5
:10358000EE4908400B900B98002817D1FFE70EA8D2
:1035900000788006002810D5FFE70DA80078800687
:1035A00000280AD5FFE70F98806E002804D0FFE7B7
:1035B0000F98816E8847FFE742E2FFE70B980028EB
:1035C00000D1FBE00CA80078C007002805D1FFE778
:1035D0000D98DB49084200D1F0E00EA80078C00742
:1035E000002810D0FFE70DA84078C00700280AD0B7
:1035F000FFE70F980068012303620F99842288581F
:1036000018438850FFE70EA800788007002811D5DE
:10361000FFE70CA80078C00700280BD0FFE70F9841
:103620000168022008620F998422885804231843F5
:103630008850FFE70EA800784007002811D5FFE763
:103640000CA80078C00700280BD0FFE70F9801688E
:10365000042008620F998422885802231843885056
:10366000FFE70EA800780007002816D5FFE70DA891
:1036700000788006002806D4FFE70CA80078C00771
:1036800000280AD0FFE70F980068082303620F990B
:103690008422885818438850FFE70EA84078000716
:1036A000002812D5FFE70DA8C078400700280CD5E8
:1036B000FFE70F9801680120C00208620F99842279
:1036C0008858202318438850FFE70F9884214058DA
:1036D000002872D0FFE70EA800788006002810D5D9
:1036E000FFE70DA80078800600280AD5FFE70F98AD
:1036F000806E002804D0FFE70F98816E8847FFE7AF
:10370000FFE70F98842140580A900F98006880685E
:1037100040210840402806D0FFE70AA80078282169
:10372000084241D0FFE70F9801F08EFD0F98006826
:1037300080684006002832D5FFE7FFE7EFF31080EE
:1037400017901798099001202790279880F31088E8
:103750000F980168886840229043886009982690F5
:10376000269880F31088FFE70F98406F002811D04B
:10377000FFE70F98416FB34848630F98406FFEF71B
:10378000CCFC002805D0FFE70F98406F416B8847BD
:10379000FFE703E00F98FFF7DFFEFFE703E00F9876
:1037A000FFF7DAFEFFE707E00F98FFF7D5FE0F9966
:1037B000842200208850FFE7FFE741E10F98006E68
:1037C000012800D016E10EA80078C006002800D419
:1037D00010E10DA80078C006002800D40AE10F9877
:1037E0000168102008620F98006880684006002871
:1037F00000D490E00F98406F0068416808A80180ED
:103800000088002800D185E008A800880F99582278
:10381000895A884200DB7DE008980F995A22885225
:103820000F98406F8069202867D0FFE7FFE7EFF32C
:10383000108016901698079001222592259880F303
:1038400010880F9801680868120290430860079872
:103850002490249880F31088FFE7FFE7EFF31080AF
:1038600015901598069001222392239880F31088D2
:103870000F98016888689043886006982290229883
:1038800080F31088FFE7FFE7EFF31080149014989F
:10389000059001202190219880F310880F980168ED
:1038A000886840229043886005982090209880F393
:1038B0001088FFE70F998022202088500F99002060
:1038C0000866FFE7EFF3108013901398049001202F
:1038D0001F901F9880F310880F98016808681022C5
:1038E0009043086004981E901E9880F31088FFE7AC
:1038F0000F98406FFEF7D8FBFFE70F99022048664C
:103900000F985821415A5A22825A891A89B2FFF7D0
:103910001DFEFFE794E00F9A5820105A5A21525A80
:10392000801A03AA10800F98405A002861D0FFE740
:1039300003A8008800285CD004E0C0460F080000FF
:1039400020010004FFE7EFF310801290129802901C
:1039500001201D901D9880F310880F980168086859
:10396000092252019043086002981C901C9880F331
:103970001088FFE7FFE7EFF3108011901198019096
:1039800001221B921B9880F310880F9801688868A9
:103990009043886001981A901A9880F31088FFE786
:1039A0000F998022202088500F99002008660F99D7
:1039B0008866FFE7EFF310801090109800900120C8
:1039C0001990199880F310880F98016808681022E0
:1039D0009043086000981890189880F31088FFE7CB
:1039E0000F99022048660F9803A90988FFF7AEFDDA
:1039F000FFE725E00EA800780006002810D5FFE7B5
:103A00000DA80078000600280AD5FFE70F98C06EC1
:103A1000002804D0FFE70F98C16E8847FFE70FE04A
:103A20000EA80078400600280AD5FFE70DA8007808
:103A30004006002804D5FFE70F9801F05DFCFFE782
:103A400028B080BD2552000880B582B00090009853
:103A5000002804D1FFE701A90120087047E0009881
:103A60008069002801D0FFE700E0FFE70098C06F01
:103A7000002808D1FFE70099782200208854009898
:103A800000F03AF8FFE700992420C8670098016821
:103A90000868012290430860009801F09DFE01280B
:103AA00004D1FFE701A90120087020E00098406AD6
:103AB000002804D0FFE7009801F059FAFFE70098CA
:103AC000016848680122D302984348600098016861
:103AD0008868082398438860009801680868104344
:103AE0000860009801F0F0FA01A90870FFE701A84A
:103AF000007802B080BD000080B58EB00D9000202F
:103B00000C900B900A90099008900D980068384925
:103B1000884232D1FFE7FFE7394802680121890373
:103B20000A4302600068084007900798FFE7FFE734
:103B300031480268012149040A43026000680840D4
:103B400006900698FFE7032041020891022109919F
:103B5000002102910A910B9001200C900920C006CF
:103B600008A9FEF73FFB029A1B2003901146FEF7BF
:103B700054FF0398FEF746FF37E00D9800686C4944
:103B8000884231D1FFE7FFE71A4802680121890422
:103B90000A4302600068084005900598FFE7FFE7C8
:103BA00015480268012189040A4302600068084040
:103BB00004900498FFE703208102089102210991F3
:103BC000002100910A910B9004200C900B4808A949
:103BD000FEF708FB009A1D2001901146FEF71DFF1D
:103BE0000198FEF70FFFFFE7FFE70EB080BDC0466C
:103BF000003801401C10024014100240000400482C
:103C00001810024080B588B00390029101A802808C
:103C100003988021405820284FD1FFE702980028C0
:103C200005D0FFE701A80088002804D1FFE704A918
:103C30000120087045E0039880680121090388424B
:103C400010D1FFE70398006900280BD1FFE702A815
:103C50000078C007002804D0FFE704A901200870FD
:103C60002FE0FFE70399002008660398006840688A
:103C70000002002818D5FFE7FFE7EFF3108005905A
:103C80000598009001220792079880F31088039806
:103C9000016808689206104308600098069006982C
:103CA00080F31088FFE7FFE70398029901AA1288C2
:103CB00001F008FF04A9087003E004A902200870BD
:103CC000FFE704A8007808B080BD000080B584B08C
:103CD000039003981249884216D1FFE71149012049
:103CE000029008700E4801900F490522FFF78AFFE5
:103CF00001980E49112200F0CFF802990920C00660
:103D0000C902FEF7E3FBFFE7039800680849884211
:103D100003D1FFE701F016FBFFE704B080BDC0460A
:103D2000CC0000207500002070000020B46700085F
:103D30000048004010B58AB00890079106A802809C
:103D400005930898C06F202800D09BE007980028B2
:103D500005D0FFE706A80088002804D1FFE709A9DD
:103D60000120087092E008988068012109038842C8
:103D700010D1FFE70898006900280BD1FFE707A8DA
:103D80000078C007002804D0FFE709A901200870C7
:103D90007CE0FFE7089984220020885008992120C0
:103DA000C867FEF7BBFB029006980899502288521C
:103DB00006980899522288520898806801210903C0
:103DC00088420AD1FFE708980069002805D1FFE77B
:103DD000002004900798039004E0079804900020C6
:103DE0000390FFE7FFE708985221405A002830D09F
:103DF000FFE70898029B059900918021002201F0BD
:103E0000D3FF002807D0FFE708992020C86709A939
:103E1000032008703AE0049800280BD1FFE70398CC
:103E200000881C4908400899096808850398801C87
:103E3000039008E0049800780899096808850498B8
:103E4000401C0490FFE708995222885A401E88526D
:103E5000C9E70898029B059900914021002201F0D2
:103E6000A3FF002807D0FFE708992020C86709A909
:103E7000032008700AE008992020C86709A90020DB
:103E8000087003E009A902200870FFE709A800787C
:103E90000AB010BDFF01000088B00390029101A894
:103EA00002800398C06F202867D1FFE7029800289E
:103EB00005D0FFE701A80088002804D1FFE704A986
:103EC000012008705DE003988068012109038842A1
:103ED00010D1FFE70398006900280BD1FFE702A883
:103EE0000078C007002804D0FFE704A9012008706B
:103EF00047E0FFE702980399C864019803995022AC
:103F00008852019803995222885203990020C8666A
:103F100003998422885003992120C86703988068F8
:103F200001210903884209D1FFE7039800690028AD
:103F300004D1FFE703991648C86603E003991348C4
:103F4000C866FFE7FFE7EFF3108005900598009043
:103F500001200790079880F310880398016808688B
:103F600080221043086000980690069880F310881D
:103F7000FFE704A90020087003E004A902200870EC
:103F8000FFE704A8007808B07047C0460D5D000840
:103F9000615C000881B0009001B0704780B50548B1
:103FA00002F092FA044802F08FFA044800F09CFDF7
:103FB00080BDC04657680008C5670008540100204E
:103FC000FFE7FEE780B50848006880694005400FBC
:103FD000002804D0FFE70448FEF74DFB03E0024849
:103FE000FEF7ACFBFFE780BD7800002080B582B013
:103FF00001900198406A00900098806B002805D0DD
:10400000FFE70098816B00204863FFE70098C06BD2
:10401000002805D0FFE70098C16B00204863FFE748
:10402000009800F00BFD02B080BD83B0029001A8A3
:104030000180002100910088C007002812D0FFE70E
:10404000009842210843009002984121405C2821B9
:104050000840282805D0FFE70098B02108430090C9
:10406000FFE7FFE701A800888007002812D5FFE7D7
:10407000009844210843009002984121405C282187
:104080000840282805D0FFE70098B0210843009099
:10409000FFE7FFE701A800880004002805D5FFE737
:1040A0000098B82108430090FFE701A80088102875
:1040B00005D1FFE70098902108430090FFE701A891
:1040C0000088202805D1FFE70098202108430090B0
:1040D000FFE701A80088402805D1FFE700984021AC
:1040E00008430090FFE7009A02980168086890432F
:1040F000086003B0704781B0009000980068806944
:10410000022108404008002805D0FFE70098016818
:1041100000208862FFE7009800688069C0070028D7
:1041200007D1FFE700980168886901221043886180
:10413000FFE701B07047000080B586B0059004919C
:1041400005984121405C2821084028287CD1FFE7C0
:10415000059800688069012109040840000C03A942
:1041600008700598006880697F2149040840000CA8
:1041700002A908800598006880683A49084001A9AA
:10418000088005980068C068FE21084069460880DC
:104190000598C068022843D1FFE702A800880622DC
:1041A00010400199C9091140884222D1FFE70198C6
:1041B00002A908800599886C401C88640598806C69
:1041C000022815D1FFE70599002088640598016849
:1041D0000820C861FFE70599402200208854FFE7C6
:1041E000059803A9097802AA1288FEF73CFAFFE7AE
:1041F00015E0009802A9088005980121C903FFF77E
:1042000014FFFFE70599402200208854FFE7059836
:1042100003A9097802AA1288FEF725FAFFE712E03F
:1042200005980121C903FFF700FFFFE70599402228
:1042300000208854FFE7059803A9097802AA12888C
:10424000FEF711FAFFE70AE0059801680820C86147
:10425000FFE70599402200208854FFE7FFE706B0FA
:1042600080BDC046FF03000080B584B0039002917A
:1042700003984121415C01A80170039A4223002167
:10428000D154039B984ADA62039A5185029B039AA0
:10429000516C19435164007828280AD0FFE701A81F
:1042A0000078292805D0FFE701A800782A280CD13A
:1042B000FFE703980321FFF7B8FE03994122282066
:1042C000885403996048486335E003988749FFF7AD
:1042D000ACFE0398FFF70FFF03984121405C602874
:1042E00025D0FFE7039841222021815403980068DC
:1042F000806908404009012818D1FFE70398006849
:10430000806910210840000901280AD1FFE70398BD
:1043100001681020C8610399486C04221043486466
:10432000FFE7039801682020C861FFE7FFE70399D2
:1043300000204863FFE70398006B00900398806BB0
:1043400000283AD0FFE70098112804D0FFE7009832
:10435000212832D1FFE70398006800684004002854
:1043600008D5FFE70398016808680122920390438B
:104370000860FFE70398806BFDF70BFF012817D05B
:10438000FFE70398816B31484863FFE703994022B8
:1043900000208854FFE70398806BFDF7BEFE0028DD
:1043A00005D0FFE70398806B416B8847FFE703E088
:1043B000039800F043FBFFE743E00398C06B00283D
:1043C0003AD0FFE70098122804D0FFE7009822288F
:1043D00032D1FFE70398006800680004002808D580
:1043E000FFE70398016808680122D2039043086040
:1043F000FFE70398C06BFDF7CCFE012817D0FFE75D
:104400000398C16B11484863FFE7039940220020DD
:104410008854FFE70398C06BFDF77FFE002805D0A6
:10442000FFE70398C06B416B8847FFE703E0039801
:1044300000F004FBFFE703E0039800F0FFFAFFE75A
:10444000FFE704B080BDC046F5470008ED3F000817
:1044500080B582B0019000910199B248C86201997B
:1044600000200863019A41232021D154019942225E
:104470008854019948636846007804210840800800
:1044800000281ED0FFE701980068406A0199496A38
:1044900008700199486A401C48620198008D002804
:1044A0000ED0FFE70199088D401E08850199488DBF
:1044B000401E48850199486C042210434864FFE778
:1044C000FFE701980949FFF7B0FD01980168102046
:1044D000C861FFE70199402200208854FFE7019856
:1044E000FEF7CEF902B080BD0000FFFF03800000A0
:1044F00080B586B005900491059800680068039027
:104500000498029005984121415C01A80170059929
:104510000A682021D1610078212805D0FFE701A891
:104520000078292808D1FFE705987C49FFF77DFD31
:1045300005992120086313E001A80078222805D0FE
:10454000FFE701A800782A2808D1FFE705987249FB
:10455000FFF76BFD05992220086300E0FFE7FFE706
:104560000598016848680122D20310434860059805
:10457000016848686A4A104048600598FFF7BBFD2B
:1045800003A84078402108408009002814D0FFE7A4
:104590000598016808680122920390430860059815
:1045A000806B002807D0FFE70598806B00684068A3
:1045B00005994885FFE71BE003A84078C00900285B
:1045C00014D0FFE70598016808680122D2039043E0
:1045D00008600598C06B002807D0FFE70598C06BFE
:1045E0000068406805994885FFE700E0FFE7FFE7BE
:1045F00002A8007804210840800800281DD0FFE7A9
:10460000029804218843029005980068406A059941
:10461000496A08700599486A401C48620598008DEF
:10462000002809D0FFE70599088D401E08850599E7
:10463000488D401E4885FFE7FFE70598408D00281C
:1046400006D0FFE70599486C042210434864FFE751
:104650000599422200208854059948630598406CCA
:10466000002810D0FFE70598416CFFF7FDFD059885
:104670004121405C282805D1FFE705980299FFF702
:10468000E7FEFFE746E00598C06AEB49884217D08D
:10469000FFE7059800F048F80599E748C8620599D2
:1046A000412220208854059900200863FFE70599DE
:1046B000402200208854FFE70598FEF7E1F828E043
:1046C00005984121405C222811D1FFE7059941223C
:1046D00020208854059900200863FFE705994022AF
:1046E00000208854FFE70598FEF716F910E00599B9
:1046F000412220208854059900200863FFE705998E
:10470000402200208854FFE70598FEF709F9FFE7EB
:10471000FFE7FFE706B080BD0280000001800000D7
:1047200000E800FE0000FFFF80B582B00190019814
:104730000068006800900199422200208854684671
:104740004078402108408009002808D0FFE7019800
:104750000168086801229203904308600FE06846F0
:104760004078C009002808D0FFE701980168086870
:104770000122D2039043086000E0FFE7FFE70198C1
:104780004121405C292815D1FFE7019941222820C9
:10479000885401992120086301980121FFF745FC05
:1047A000FFE70199402200208854FFE70198FEF7B7
:1047B000B7F81CE001984121405C2A2815D1FFE799
:1047C00001994122282088540199222008630198E8
:1047D0000221FFF72AFCFFE70199402200208854BC
:1047E000FFE70198FEF798F800E0FFE7FFE702B067
:1047F00080BD000080B586B00490039102920498B9
:10480000C06A019003980090FFE704984021405C43
:10481000012804D1FFE705A90220087008E10499E6
:10482000402201208854FFE7FFE7684600782021F6
:104830000840400900280DD0FFE702A80078202199
:1048400008404009002805D0FFE704980099FFF7C9
:104850004FFEFFE768460078102108400009002855
:1048600055D0FFE702A80078102108400009002871
:104870004DD0FFE70498408D00282ED1FFE7049823
:104880004121405C28280BD1FFE70198012149060E
:10489000884205D1FFE704980099FFF7D9FD1BE096
:1048A00004984121405C292810D1FFE70198624912
:1048B00088420BD0FFE7049801681020C861049873
:1048C000FFF719FC0498FFF72FFF04E00498016834
:1048D0001020C861FFE7FFE718E004980168102086
:1048E000C8610499486C0422104348640198002868
:1048F00006D0FFE7019801210906884205D1FFE7AC
:104900000498416CFFF7B0FCFFE7FFE786E06846DC
:10491000007804210840800800282FD0FFE702A873
:104920000078042108408008002827D0FFE7049879
:10493000408D002813D0FFE704980068406A04996E
:10494000496A08700499486A401C48620499088DB5
:10495000401E08850499488D401E4885FFE704984D
:10496000408D002809D1FFE701983349884204D0DF
:10497000FFE70498FFF7D8FEFFE74EE068460078AF
:1049800008210840C00800280DD0FFE702A80078E1
:1049900008210840C008002805D0FFE704980099C6
:1049A000FFF7CAFB38E0684600780221084040085B
:1049B00000282FD0FFE702A8007802210840400815
:1049C000002827D0FFE70498408D002812D0FFE789
:1049D0000499486A0078096888620499486A401C0A
:1049E00048620499488D401E48850499088D401EF0
:1049F00008850EE0019801210906884204D0FFE7EE
:104A00000198002804D1FFE70498FFF78DFEFFE727
:104A1000FFE700E0FFE7FFE7FFE7FFE7FFE70499B5
:104A2000402200208854FFE705A900200870FFE716
:104A300005A8007806B080BD0000FFFF80B582B0F9
:104A4000019001984121405C602811D1FFE7019954
:104A5000412220208854019900200863FFE7019932
:104A6000402200208854FFE70198FDF7F8FD0CE094
:104A7000019900200863FFE7019940220020885433
:104A8000FFE70198FDF772FEFFE702B080BD80B539
:104A900084B0039002910398019002980090FBF774
:104AA00067FD00990246019892B20023DB43FFF7AD
:104AB00041F904B080BD000080B582B001200190B2
:104AC0000103694800900022FDF712FD6420FDF704
:104AD00067FB0098019A9103FDF70AFD7D20000114
:104AE000FDF75EFB02B080BD80B586B00590DB4867
:104AF00001F0EAFCDA480068002810D0FFE7D84847
:104B000003900168D7480290FBF70CFD0298D64944
:104B100001F046FA03980068FBF70BFCFFE7D24868
:104B200001F012FD049005980D49FFF7B0FF0498BD
:104B3000002812D0FFE70598019004980090FBF739
:104B400017FD00990246019892B20023DB43FFF75C
:104B5000F1F80498FBF7EDFBFFE706B080BDC04617
:104B6000C969000880B50B4801F0AEFC0A4801F0A5
:104B7000ABFCFFE7FDF786FA0848FDF711FB654837
:104B800000F0EEF8064801F09FFC7D20C000FDF724
:104B900007FBEFE757680008C567000888130000A7
:104BA0001C68000810B58EB000200D900C900B9082
:104BB0000A900990FFE72B480268012189040A4303
:104BC00002600068084008900898FFE7FFE7254862
:104BD0000268012149040A43026000680840079006
:104BE0000798FFE70720010301911F480590002265
:104BF0000492FDF77DFC049A0920C006039003216E
:104C0000CC022146FDF774FC019A0499059809929B
:104C1000012202920A920B910C9109A90691FDF7CB
:104C2000E1FA029B049A05980699DB0309930A921C
:104C30000B92FDF7D7FA029B0398049A0699099400
:104C40000A930B920C92FDF7CDFA049A05980699F7
:104C50000823099311231B040A930B92FDF7C2FA50
:104C60000EB010BD141002400004004880B582B0A0
:104C70001648019016490160164941600021816083
:104C80000122C260016141618161C1610162FDF780
:104C900071FD002803D0FFE7FDF7ECF9FFE70B48B3
:104CA0000021FDF741FC002803D0FFE7FDF7E2F902
:104CB000FFE706480021FDF782FC002803D0FFE74C
:104CC000FDF7D8F9FFE702B080BDC04678000020AC
:104CD000005400400E09002080B582B00D480190BC
:104CE0000D490160E1214902416000218160C160FC
:104CF00001610C2242618161C16101624162FEF782
:104D0000A3FE002803D0FFE7FDF7B4F9FFE702B0E8
:104D100080BDC046CC0000200038014080B582B084
:104D20000D4801900D490160E121490241600021D7
:104D30008160C16001610C2242618161C1610162D7
:104D40004162FEF781FE002803D0FFE7FDF792F9EC
:104D5000FFE702B080BDC04654010020004800407B
:104D600080B5C6B045907D20C000FDF719FA3B48DC
:104D700001F0AAFB3A480068002810D0FFE7384845
:104D80000490016837480390FBF7CCFB0398364941
:104D900001F006F904980068FBF7CBFAFFE7334906
:104DA00005A80190FBF78CFB0198FBF7E1FB01469E
:104DB000019840182E492C4A0092FBF781FB01987C
:104DC000FBF7D6FB009A0146019840182832294982
:104DD000FBF776FB0198FBF7CBFB009902460198A5
:104DE0008018CA1D2449FBF76BFB0198FBF7C0FB39
:104DF000009A01460198401811322049FBF760FBE8
:104E00000198FBF7B5FB009A0146019840181C3247
:104E10001B49FBF755FB0198FBF7AAFB009A0146DB
:104E20000198401821321749FBF74AFB0198FBF71C
:104E30009FFB0146019840181349FBF741FB01987D
:104E400045990291FBF794FB01990246029892B2B0
:104E50000023DB43FEF76EFF46B080BDFA69000811
:104E60000C02002012120020DD010020086A000858
:104E70003D6A0008476A00082F6A0008206A000897
:104E8000656A0008516A0008746A0008FFE7FEE7D7
:104E90007047704780B584B002900298401E000EA3
:104EA000002803D0FFE70120039011E00298401E84
:104EB0000949086000200190C043032101F02EF849
:104EC000019806490860064A072111600390FFE730
:104ED000039804B080BDC04614E000E018E000E094
:104EE00010E000E080B5FDF71FFD80BD80B596B0F5
:104EF0000AA800903021FBF7C8FB0098002101911F
:104F000009910891079106910591049103910291ED
:104F100002220A9201220D9210220E921291FDF7A6
:104F2000ADFF002803D0FFE7FDF7A4F8FFE7072057
:104F30000690002107910891099106A8FDF74AFE05
:104F4000002803D0FFE7FDF795F8FFE72120029046
:104F500000200490059002A8FDF76EFD002803D004
:104F6000FFE7FDF787F8FFE716B080BD704781B017
:104F7000009000982421405CC00700280CD0FFE777
:104F800000980068406801214904884300998A6AB2
:104F9000104309684860FFE700982421405C8007BF
:104FA00000280CD5FFE7009800684068012109043B
:104FB00088430099CA6A104309684860FFE700986F
:104FC0002421405C400700280CD5FFE700980068CA
:104FD000406801218904884300990A6B10430968DD
:104FE0004860FFE700982421405C000700280CD5AA
:104FF000FFE70098006840680121C90388430099D1
:105000004A6B104309684860FFE700982421405C20
:10501000C00600280CD5FFE70098006880680121D1
:105020000903884300998A6B104309688860FFE789
:1050300000982421405C800600280CD5FFE70098EA
:10504000006880680121490388430099CA6B1043B6
:1050500009688860FFE700982421405C400600282A
:105060001DD5FFE7009800684068012109058843C5
:10507000009A136C1843126850600098006C8842C4
:105080000CD1FFE700980068406803214905884378
:1050900000994A6C104309684860FFE7FFE70098F1
:1050A0002421405C000600280CD5FFE7009800682A
:1050B00040680121C904884300998A6C104309683B
:1050C0004860FFE701B0704780B590B00590059942
:1050D000842200208850FDF721FA0490059800688A
:1050E00000680007002831D5FFE70598049B4C496C
:1050F000009101214905002200F056FE002824D02D
:10510000FFE7FFE7EFF31080099009980390012073
:105110000F900F9880F31088059801680868802226
:105120009043086003980E900E9880F31088FFE774
:1051300005992020C867FFE7059978220020885448
:10514000FFE706A90320087065E0FFE705980068FF
:1051500000684007002849D5FFE70598049B3049BF
:10516000009101218905002200F01EFE00283CD09C
:10517000FFE7FFE7EFF31080089008980290012006
:105180000D900D9880F31088059801680868092231
:1051900052019043086002980C900C9880F310889C
:1051A000FFE7FFE7EFF310800790079801900122D7
:1051B0000B920B9880F310880598016888689043DB
:1051C000886001980A900A9880F31088FFE7059993
:1051D000802220208850FFE70599782200208854FB
:1051E000FFE706A90320087015E0FFE705992020D6
:1051F000C86705998022885005990020086605999E
:105200004866FFE70599782200208854FFE706A941
:1052100000200870FFE706A8007810B080BDC046E7
:10522000FFFFFF0180B582B001900198406A0090B5
:1052300000995A22002088520099522288520098E0
:10524000FEF78AF902B080BD8DB00390FFE7EFF35F
:10525000108006900698029001200C900C9880F324
:105260001088039801680868092252019043086079
:1052700002980B900B9880F31088FFE7FFE7EFF39D
:10528000108005900598019001220A920A9880F3F7
:105290001088039801688868904388600198099095
:1052A000099880F31088FFE70398006E012818D151
:1052B000FFE7FFE7EFF310800490049800900120CF
:1052C0000890089880F310880398016808681022F5
:1052D0009043086000980790079880F31088FFE7D4
:1052E000FFE7039980222020885003990020086658
:1052F000039988660DB0704780B586B00290FFE7CD
:10530000EFF3108003900398019001200590059819
:1053100080F3108802980168086840229043086072
:1053200001980490049880F31088FFE702992020E8
:10533000C86702990020C8660298FEF72BFE06B0E7
:1053400080BD000080B584B02D4801782D48405CB8
:105350000A283DD1FFE72A480078012814DBFFE73F
:105360002748007827494018401E00780D280BD1A7
:10537000FFE72348027823495218531E0A221A7065
:1053800002780020885405E01D4802781D4900205D
:105390008854FFE71D48039001781D48401801908C
:1053A00018480290FBF7E4F8029902460198FBF7CF
:1053B0000DF90298FBF7DCF803990246087880188B
:1053C00008700F4900200870FC49012008700DE0AA
:1053D0000B480178491C017000780B49884204DBB6
:1053E000FFE7074900200870FFE7FFE7044801785E
:1053F0000448411807480122FEF704FC04B080BDB0
:105400001012002010020020FF07000011120020DF
:10541000100A00205401002080B594B0079007982E
:105420005C21405A05A9088007988021405822280D
:1054300000D0A9E007980068808C04A9088007982C
:10544000406D0690049805990840069908800799D0
:10545000486D801C4865079A5A21505A401E505288
:105460000798405A002800D08DE0FFE7EFF3108046
:105470000B900B98039001201390139880F31088E1
:105480000798016808680922520190430860039850
:105490001290129880F31088FFE7FFE7EFF3108077
:1054A0000A900A98029001221192119880F31088B4
:1054B0000798016888689043886002981090109857
:1054C00080F31088FFE707998022202088500799F1
:1054D00000208866079948660798006840680002BF
:1054E000002818D5FFE7FFE7EFF31080099009982F
:1054F000019001220F920F9880F31088079801689D
:10550000086892069043086001980E900E9880F308
:105510001088FFE7FFE70798006E01282ED1FFE70C
:10552000079900200866FFE7EFF3108008900898BD
:10553000009001200D900D9880F310880798016865
:10554000086810229043086000980C900C9880F333
:105550001088FFE707980068C0691021084000091B
:10556000012805D1FFE70798016810200862FFE7CE
:1055700007985821415AFDF7E9FF03E00798FEF725
:10558000A5FBFFE7FFE706E00798016888690822A6
:1055900010438861FFE714B080BD80B594B00790D8
:1055A00007985C21405A06A9088007988021405836
:1055B000222800D0A7E007980068808C05A9088001
:1055C0000598069908400799496D08700799486D34
:1055D000401C4865079A5A21505A401E505207985D
:1055E000405A002800D08DE0FFE7EFF310800B90C9
:1055F0000B98049001201390139880F3108807985B
:1056000001680868092252019043086004981290CA
:10561000129880F31088FFE7FFE7EFF310800A90FD
:105620000A98039001221192119880F3108807982C
:10563000016888689043886003981090109880F300
:105640001088FFE7079980222020885007990020C2
:105650008866079948660798006840680002002835
:1056600018D5FFE7FFE7EFF3108009900998029043
:1056700001220F920F9880F310880798016808683C
:1056800092069043086002980E900E9880F310885E
:10569000FFE7FFE70798006E01282ED1FFE7079983
:1056A00000200866FFE7EFF310800890089801904B
:1056B00001200D900D9880F3108807980168086804
:1056C00010229043086001980C900C9880F3108889
:1056D000FFE707980068C069102108400009012809
:1056E00005D1FFE70798016810200862FFE70798D7
:1056F0005821415AFDF72AFF03E00798FEF7E6FA22
:10570000FFE7FFE706E00798016888690822104371
:105710008861FFE714B080BD80B586B00590049124
:10572000039226480078002845D0FFE705980190AD
:10573000FAF71EFF019982B221480023DB43FEF7EE
:10574000F9FA03981F49FAF7D9FE002807D0FFE7B6
:1057500005981D4900F000FE1C490860FFE7059808
:10576000049900F0ADFB02A9009108700598012191
:10577000C902FAF788FF0098104A00211170144AF4
:1057800011700078002815D1FFE703981149FAF746
:10579000B5FE002806D0FFE7FEF700FC02A90020B6
:1057A000087006E0039800F08FFE02A90020087040
:1057B000FFE7FFE7FFE706B080BDC046DC01002041
:1057C000CC00002086690008B56900080C020020A2
:1057D000111200206369000880B58AB0099004A9FD
:1057E00000200870099988680A6910434A691043C3
:1057F000C96908430890099800680068A8490840EA
:105800000899084309990968086009980068406880
:105810000321090388430999CA681043096848604D
:105820000998806908900998016A089808430890C7
:105830000998006880680B21090288430899084389
:10584000099909688860FFE70998006895498842C6
:1058500029D1FFE7994800680321084002900328F6
:105860001CD80298810001A0405887467D58000846
:105870008D580008955800088558000806A9002092
:1058800008700FE006A9022008700BE006A90420AA
:10589000087007E006A90820087003E006A9102098
:1058A0000870FFE73AE0099800687F49884204D110
:1058B000FFE706A9002008702FE0099800687B49DF
:1058C000884204D1FFE706A90020087024E0099867
:1058D00000687749884204D1FFE706A900200870D4
:1058E00019E0099800687349884204D1FFE706A9C6
:1058F000002008700EE0099800686F49884204D1C2
:10590000FFE706A90020087003E006A91020087030
:10591000FFE7FFE7FFE7FFE7FFE7FFE7FFE709989C
:10592000C0690121C90388425ED1FFE706A800785B
:105930000190082825D80198810001A04058874689
:1059400065590008835900086D59000883590008FB
:1059500073590008835900088359000883590008C7
:105960007B590008FDF71CFA039010E0544803909F
:105970000DE0FDF725FA039009E00120C003039034
:1059800005E00020039004A901200870FFE70398B8
:10599000002828D0FFE703984000099949684A0881
:1059A0008018FAF7B9FE05900598102816D3FFE77E
:1059B00005A84088002811D1FFE705990F208143F1
:1059C00007A8018005990E2211404A080799114342
:1059D0000180008809990968C86003E004A90120D2
:1059E0000870FFE7FFE751E006A80078009008285C
:1059F00025D80098810001A040588746215A000808
:105A00003F5A0008295A00083F5A00082F5A000838
:105A10003F5A00083F5A00083F5A0008375A00080A
:105A2000FDF7BEF9039010E0254803900DE0FDF767
:105A3000C7F9039009E00120C003039005E00020AE
:105A4000039004A901200870FFE7039800281CD0E8
:105A5000FFE70398099949684A088018FAF75CFE3D
:105A60000590059810280BD3FFE705A8408800286B
:105A700006D1FFE705A8008809990968C86003E016
:105A800004A901200870FFE7FFE7FFE7099900205C
:105A900088660999C86604A800780AB080BDC04627
:105AA000F369FFEF00380140004400400048004027
:105AB000004C0040005000400014014030100240F3
:105AC00000127A008FB00590049103A80280049818
:105AD00005994865039805995822885203980599B5
