:020000040800F2
:10000000F00E00205D0100086D1E00082716000894
:1000100000000000000000000000000000000000E0
:10002000000000000000000000000000711E000839
:1000300000000000000000006F1E0008731E000892
:100040006F010008000000006F0100086F01000848
:100050006F0100086F0100086F0100086F010008C0
:10006000000000006F0100086F0100086F01000828
:100070006F0100086F0100086F0100080000000018
:100080006F0100086F0100086F0100086F01000890
:100090006F0100086F0100086F01000829160008B1
:1000A0006F0100086F0100086F0100084926000871
:1000B0006F0100085526000800F002F800F03EF835
:1000C0000CA030C8083824182D18671EA246AB466D
:1000D00054465D46AC4201D100F030F87E460F3EFA
:1000E000B6460FCC0126334200D0FB1A3343A2465A
:1000F000AB461847BC2A0000DC2A0000103A02D3A5
:1001000078C878C1FAD8520701D330C830C101D5B8
:1001100004680C60704700000023002400250026BE
:10012000103A01D378C1FBD8520700D330C100D5B3
:100130000B6070471FB51FBD10B510BD00F0F3F880
:100140001146FFF7F7FF02F08BFA00F00BF903B44A
:10015000FFF7F2FF03BC00F00DF9000007488047ED
:1001600007480047FEE7FEE7FEE7FEE7FEE7FEE79B
:1001700004480549054A064B704700007B1E0008ED
:10018000B9000008F0080020F00E0020F00A00205E
:10019000F00A0020034670B502460B439B070FD1BF
:1001A0000E4CE60100E008C208C91D1B9D43354204
:1001B000F9D0D9B21170521C00290DD01B0AF8E7F2
:1001C0000B78491C1370521C002B05D00B78491C6E
:1001D0001370521C002BF3D170BD0000010101010E
:1001E00030B5441C03E00178401C00290DD0810784
:1001F000F9D10B4BDD0104C8D11A91432940FAD043
:10020000001B0A0603D0C01E30BD001B30BD0A040F
:1002100001D0801E30BD0902FCD0401E30BD000060
:100220000101010101E004C0091F0429FBD28B0771
:1002300001D50280801CC90700D0027070470029D8
:100240000BD0C30702D00270401C491E022904D300
:10025000830702D50280801C891EE3E70022EEE7B7
:100260000022DFE782078B079A423FD170B5920FD9
:100270000AD0032402780B78401C491C002A33D092
:100280009A4231D12042F5D1214EF40104C808C967
:10029000951B9543254018D19A420FD104C808C92F
:1002A000951B9543254010D19A4207D104C808C92F
:1002B000951B9543254008D19A42E7D012BA1BBA44
:1002C00001209A4200D2404270BD12BA1BBA2DBA28
:1002D00018241000E0401900E140401A05D12E001A
:1002E000E64002D1083CF4D1D01A70BD02780B78F8
:1002F000401C491C002A09D09A4207D102780B7889
:10030000401C491C002A01D09A42EFD0D01A7047F5
:1003100001010101704770477047000000487047B5
:100320001800002070477546FFF7F8FFAE4605003D
:1003300069465346C008C000854618B020B5FFF78F
:1003400017FF60BCB64600260027C0C5C0C5C0C5A3
:10035000C0C5C0C5C0C5C0C5C0C5403D49084900ED
:100360008D46704710B50446C046C0462046FFF78C
:10037000EEFE10BD01491820ABBEFEE726000200CC
:1003800010B5014620314A78022A12D1026813685A
:100390000E24A343136013680124A3431360C26BAC
:1003A000006C2346834053604C70002000220A708A
:1003B00010BD04228263012000220A7010BDB0B576
:1003C000014620314A78022A16D1026813680E24A9
:1003D000A343136013680125AB431360C26B036C26
:1003E0002C469C40546000240C704D70416B0029D9
:1003F00000D088472046B0BD042181630120B0BDF4
:100400002121405C70470000B0B5044600F0FAF8C6
:100410000546601C02D004480078041900F0F2F888
:10042000401BA042FAD3B0BD00000020F0B58AB056
:1004300003900F68002F00D1C3E06348039A824203
:1004400001D0052000E00320009000231A461C463E
:1004500008910BE03A433260079A641C0F683846F3
:10046000E0409B1C121D002800D1AAE00126059641
:10047000A6403740F1D00792032002469A400293EB
:10048000D34349680D4605406A1E012A069304912C
:1004900013D80197039FB8681840089AD268029B46
:1004A0009A400243BA60C806C00FA0407A68B243BF
:1004B0003E46019F0243726006E0032D039E029BAD
:1004C00002D10546079A1EE0F0680699084008998F
:1004D0008A689A400243F260022D079A13D11C20C9
:1004E00010400F218140E2089200B218156A8D4336
:1004F000089E3169814029431162079A7068039E02
:100500000325049005409D40306806990840284323
:10051000306004988003800F08999ED0F1490868E4
:10052000059D284308600868284009900C20104069
:100530000F228240032125468D430999244EA95953
:100540009143AD190922D206039E96420CD0BD4AB2
:10055000964206D01F4A9642009A1C4E06D10222AD
:1005600004E01A4E059A01E00022184E82400A4328
:100570002A60B568089801464068C2020FD53D431D
:10058000B560F56882020FD4BD43F56075688203DB
:100590000FD4BD4375603268C00310D55AE7BD4320
:1005A000B560F5688202EFD53D43F560756882035A
:1005B000EFD53D4375603268C00300D54AE7BA43C2
:1005C00049E70AB0F0BDC046000C004800040140F5
:1005D000080001400008004800690840411E8841A9
:1005E000704742690B4693430A401104C918816160
:1005F0007047002A02D0182281507047282281506B
:1006000070470000954800687047C046B0B5024684
:10061000034640335C780220202C17D11C78012C33
:1006200014D024205870106802680124A24302608C
:10063000220305689543056002680A430260016869
:10064000214301600020187020215970B0BDB0B561
:100650000246034640335C780220202C17D11C78D8
:10066000012C14D024205870106802680124A24381
:1006700002600F22120205689543090229430160B6
:100680000168214301600020187020215970B0BD1D
:1006900070477047F0B581B00122150201688B697F
:1006A0001C462C40664266410F6880243C406742ED
:1006B0006741374304D1466C012737434764CD6116
:1006C000654265415E05164600D52E46002E05D1D1
:1006D0009502466C082737434764CD616542654102
:1006E0009B05134609D4002B0AD0416C0B22114202
:1006F00001D001F01FF801B0F0BD2B46002BF4D162
:100700005202436C02241C434464CA61416C0B22B4
:100710001142EED1EFE780B502689169436B126830
:10072000002B00D0984780BD70470000F0B581B025
:10073000002822D00446054640356878002804D1B8
:1007400000202870204600F047F8242068702068B8
:10075000026801218A4302600F22120663689343F4
:1007600003618368194A13408360A368E668012E19
:1007700006D1CE03334383600AE0012001B0F0BD0F
:100780002127BF023B438360022E01D1CB0243608D
:1007900043680F4E1E434660C3681340C36022691E
:1007A00063691343A26912021A43C260E269236AB1
:1007B0001343036002680A43026000206064202142
:1007C00069702063A87001B0F0BDC046FF7FFFFFD5
:1007D000008000027047000070B586B000681749BD
:1007E000884201D006B070BD154D286801260596D7
:1007F000B104084328602868084000900320049052
:100800000024039412200290C020019000980D480B
:1008100001A9FFF70BFE7005A9680143A960A9684B
:10082000014000910098172528462146224600F0F5
:1008300067F8284600F058F806B070BD0054004034
:100840001410024000040048704770471A480078AE
:1008500002490A68101808607047C046EC0800207A
:1008600080B5C048016810220A430260032000F0EE
:1008700005F800F023F8002080BDC04670B504469E
:100880007D20C0000C4E317802F068F80146BD486A
:10089000006802F063F800F09FFB0125032C08D8E4
:1008A000002806D10025E84321462A4600F028F812
:1008B0007460284670BDC0460000002082B0094820
:1008C0000168012211430160016811400191019901
:1008D000110742680A43426040680840009000984F
:1008E00002B0704718100240002805D41F210840AC
:1008F00001218140014801607047C04600E100E0ED
:10090000002805D40322034693430A4A9A1803E0B9
:100910000C220240064BD2188007C00E8901C9B2D2
:100920008140FF238340106898430843106070475C
:1009300014ED00E000E400E0F0B585B004468078F6
:10094000C0073A4B4FD00120039001071A1F1068CF
:100950000840029006D110680843106010680840F3
:100960000490049800920191314E3068C00513D470
:1009700003980702306838433060FFF743FE0546AE
:100980003068384208D1FFF73DFE401B6428F7D994
:100990000325284605B0F0BD03252802234B19681E
:1009A000014012D06268024091420ED003980004C8
:1009B00019681A6802431A601A6882431A60084666
:1009C0001C4A10401860C80722D11868194908400D
:1009D0006168014319600298002804D1009A1068E8
:1009E0000199884310602068C10705D01969032266
:1009F0009143A2680A431A6100258006C9D5186987
:100A000010218843E16801431961284605B0F0BD13
:100A1000FFF7F8FD0646544F044B18688007D4D4FE
:100A2000FFF7F0FD801BB842F6D9B2E72010024074
:100A300000700040FFFCFFFFF0B581B0002861D0DE
:100A40000446484A1368012003408B4208D21368C9
:100A50000126B3430B431360126832408A424ED1E1
:100A6000009121688A07544B11D54A0707D5072200
:100A70001202514B1B6813434F4A13604E4B1A68C6
:100A8000F0239A43A36813434B4A13604A4BC907A8
:100A90003CD13449086801263040009A904205D97B
:100AA0000868B04308600868C00728D1207840076C
:100AB00006D50720000219688143E06808431860E2
:100AC00019680C220A403D48082A0CD18902090FF6
:100AD0003B4A545C996A0F220A403A49895C01F00A
:100AE0003DFF354B604319680906090F1F4A515CE9
:100AF000C840244908600320FFF7C0FE00263046A6
:100B000001B0F0BD0126304601B0F0BD61681A1F8A
:100B1000022906D0012909D1126892030646EED5B2
:100B200008E0126892010646E9D503E012689207D0
:100B30000646E4D518680326B04308431860FFF75B
:100B400061FD0746084D1C4B18680C210140606888
:100B5000800081429DD0FFF755FDC01BA842F2D90D
:100B6000CDE7C0460020024088130000522B000849
:100B700004480068104909684905490F024A515C58
:100B8000C840704714000020622B000810B50A49C5
:100B90000A680C2313400948082B0BD19202120F4C
:100BA000074B9C5C896A0F220A400649895C01F068
:100BB000D5FE604310BDC0460410024000127A000A
:100BC0006A2B00087A2B0008F0B587B00446012094
:100BD000002C00D1F5E104902078C007FB4E05946D
:100BE00019D071680C20014004290DD071680140B2
:100BF000082900D0C0E00320C00371680140012033
:100C00000004814200D0B7E03068800303D56068FB
:100C1000002800D118E1207880071FD570680007F0
:100C2000800F0CD070680C21014008297AD1032074
:100C3000C003716801400120C003814272D1306855
:100C40008007059C03D5E068012800D0FCE03068EF
:100C5000F82188432169C90001433160059C20784F
:100C6000000724D42078400736D42078C00600D46A
:100C7000C5E005984069411D00D1B4E0012800D0CD
:100C800007E1706B042101437163706B0121014323
:100C90007163FFF7B7FC0546706B800700D5A6E0CF
:100CA000FFF7B0FC411B03200229F5D989E1706AE6
:100CB000E169002974D0012108437062FFF7A2FCAA
:100CC0000546706A8007CDD4FFF79CFC401B0228C4
:100CD000F7D9032007B0F0BD012003900107F069A8
:100CE0000840029006D1F0690843F061F0690840BD
:100CF000069006980191B64F3868C00528D403982D
:100D00000402386820433860FFF77CFC05463868E9
:100D100020421DD1FFF776FC401B6428F7D9032041
:100D200007B0F0BD3068059CE16800294AD0012178
:100D300008433060FFF766FC05463068800786D4BC
:100D4000FFF760FC401B0228F7D9032007B0F0BD75
:100D5000059880689F4F002800D1AFE0052800D19A
:100D6000C1E0012800D1C2E0306A039988433062B3
:100D7000306A04218843BDE06168012047040029EE
:100D800000D1D0E0052900D1E4E0012900D1E5E05F
:100D9000010432688A433260810430688843E0E0AD
:100DA000012188437062FFF72DFC0546706A8007B9
:100DB00000D457E7FFF726FC401B0228F6D9032092
:100DC00007B0F0BD012188433060FFF71BFC0546EA
:100DD0003068800700D441E7FFF714FC411B032073
:100DE0000229F5D9EDE0706B042188437063706BC4
:100DF000F821884305998969C90001437163059801
:100E0000046A002C1DD070680C21014008291ED1F5
:100E1000012C19D00320C20370680240F16A059CBE
:100E2000636A9A4210D10F221140E36A9942049BEF
:100E300000D0C8E091040840A16A8842184600D05A
:100E4000BFE0002007B0F0BD049807B0F0BD01205E
:100E5000020631680492914331604706FFF7D2FBE6
:100E60000546022C0BD1049C3068384200D188E042
:100E7000FFF7C8FB411B03200229F5D9A1E0306828
:100E80003842DED0FFF7BEFB411B03200229F6D912
:100E900097E0706B042101437163706B01218843FB
:100EA0007063FFF7AFFB0546706B8007A7D5FFF7B0
:100EB000A9FB411B03200229F6D982E0306A03997D
:100EC00088433062306A042188433062FFF79AFB1E
:100ED0000546306A80071CD5FFF794FB411B0320B1
:100EE000B942F6D96DE0306A042101433162306ABB
:100EF000039908433062FFF785FB0546306A800797
:100F000007D4FFF77FFB401BB842F7D9032007B097
:100F1000F0BD02980028059C00D0A6E6F069019972
:100F20008843F061A1E6010432688A43326080049C
:100F3000316881433160FFF765FB0546059C3068E9
:100F4000384200D167E6FFF75DFB411B03206429AF
:100F5000F5D936E0810432680A4332600104306812
:100F600008433060FFF74EFB05463068384200D03A
:100F700051E6FFF747FB401B6428F6D9032007B072
:100F8000F0BDF06A0F218843059AD16A0143F162EE
:100F90007B20C00371688143906A0843516A014312
:100FA0007160306820433060FFF72CFB04463068E6
:100FB000384200D045E7FFF725FB011B032002293B
:100FC000F5D907B0F0BD184607B0F0BD00100240DB
:100FD0000070004088130000401E010E01D0012067
:100FE00070470749074A5060074803680B400321D0
:100FF000890759180160002090600721116070472F
:10100000FFFFFF0010E000E020ED00E070477047B8
:10101000F0B589B00368D9691F6820220797069246
:1010200017407C427C410125EA0216462F36089182
:101030000E40203E711E8E4126439E6852D002977C
:10104000039305950746583711460F31089B0B420D
:101050000490079D06D0E149294001231E407118E4
:1010600000D08FE03B461024294621404E424E419D
:10107000089A1146029421404F424F41016E0129C6
:101080000598044634D13C46002C044633D0002C4D
:1010900034D0802129404C424C411106034604982B
:1010A00000D52346002B00D1D9E0402425406B42D7
:1010B0006B41510600D505930599002910D1EFF336
:1010C0001081012282F3108802681368A343136021
:1010D00081F310880021C1660699C16700F0A2FA69
:1010E00009B0F0BD816E0029FAD0884709B0F0BD83
:1010F000002C0446CBD13446002CCAD11F4603989D
:101100000299016280684006049900D5AEE07B88B0
:1011100038887A88002AE3D09842E1D0EFF310842F
:10112000012282F3108809256D010E6808933B4661
:101130003768AF43376084F31088EFF3108482F38D
:1011400010880D68AE689643AE6084F31088069CE4
:101150009C6200248C660C66EFF3108482F3108886
:101160000A681568029B9D43156084F3108802226B
:101170004A66089A801A82B208461146FFF746FF6F
:1011800009B0F0BD0192190229404C424C41089A25
:10119000D1070598014600D02146002904D10399C2
:1011A0000B62F96A1943F96274427441910701466E
:1011B00000D52146002907D10221039A1162089A1D
:1011C000F96A04240C43FC627442744151070146DD
:1011D00000D52146002907D10421039A1162089AFB
:1011E000F96A02240C43FC6202990E437442744172
:1011F0001107064600D52646002E039E04D108217D
:101200003162FC6A0C43FC6299060D406C426C41F1
:10121000154601990A4205460DD02546002D0CD1F0
:1012200001983062F96A06980143F962F96A002967
:10123000029907D154E7002DF2D0F96A00290299EA
:1012400000D14DE70698024005984C424C41002AD7
:1012500000D020461D4600285BD0049C60E0C16E93
:10126000002900D13CE7884709B0F0BD486F01680C
:1012700049688AB2002A00D132E73C88A242049C25
:1012800000D32DE779808069202837D0EFF31081D3
:10129000012080F31088534A2032049C246825687A
:1012A0001540256081F31088EFF3108180F31088DA
:1012B000049A126894688443946081F31088EFF371
:1012C000108180F31088049A126894684025AC431A
:1012D0009460049C81F310880699B962002121660C
:1012E000EFF3108180F3108820680268029B9A4314
:1012F000026081F31088606FFFF742F80220606699
:1013000038887988401A81B22046FFF77FFE09B0FD
:10131000F0BD049CA16E002902D0204688472668B3
:10132000F96A28230B40B16840200140C91806D152
:101330002046FFF76CFE0020F86209B0F0BDEFF325
:1013400010812E4685F310880922520123681C68FB
:1013500094431C60049C81F31088EFF3108185F3A3
:10136000108822689368AB43936081F31088216EE4
:1013700001290BD1EFF3108185F3108822681368DF
:101380001024A343049C136081F310880699B9626A
:1013900000212166A16621688968490618D5EFF306
:1013A000108185F31088226893688343936081F3EA
:1013B0001088606F00280BD009494163FEF7FFFFDA
:1013C000002800D18CE6606F416B884709B0F0BD02
:1013D0002046FFF71CFE09B0F0BDC0462001000406
:1013E00015200008DFFEFFFFB0B500282ED0044610
:1013F000C06F002805D1782000212154204600F03C
:1014000027F82420E067206801680125A9430160CE
:10141000204600F0D5FE012816D0606A002802D0D0
:10142000204600F02BFD0120C102226853688B4347
:1014300053609168082399439160116801431160DA
:10144000204600F085FD05462846B0BD0120B0BD10
:10145000B0B586B0002405940494039402940194DA
:101460000068244988421AD0234988423FD101218B
:101470008803224A53680343536053680340009330
:1014800000984804136803431360126802400092F6
:1014900000980920C006032252021B2515E00120F6
:1014A000800416498A6802438A608A680240009272
:1014B000009A0A6802430A60096801400091009896
:1014C000032082021D250E48042105910321049169
:1014D000039402210291019201A9FEF7A7FF284679
:1014E00021462246FFF70CFA2846FFF7FDF906B021
:1014F000B0BDC04600480040003801401410024012
:1015000000040048F0B581B08023C358202B12D1CD
:10151000012400290CD0002A0AD001231C0385686D
:10152000A5420CD1CC070AD00469002C07D11C4677
:10153000204601B0F0BD0224204601B0F0BD0024D9
:10154000046605686D682D020AD5EFF3108583F3F4
:1015500010889B06066837681F43376085F310883C
:1015600000F0E0FE204601B0F0BD000080B50D495E
:10157000884203D00C4988420CD080BD09480B49F1
:10158000112200F015F80920C0060121C902FFF759
:1015900028F880BD0920C0060122D102FFF729F8F2
:1015A00080BDC046D40000205C0100208A2B0008CA
:1015B000F0B5C36F202B10D1012300292CD0002AB5
:1015C0002AD0856801242603B54208D1CB0706D06E
:1015D0000369002B03D12046F0BD0220F0BD074671
:1015E00050377A8000237B633A80C1642121C16730
:1015F000B54202D10169002901D0094900E007493B
:10160000C166EFF3108184F31088006802688024BB
:101610001443046081F310881846F0BDED230008E0
:101620004D2400087047FEE780B5074800688069D0
:101630004005400F03D00448FFF72CF880BD024856
:10164000FFF769F880BDC0468000002080B5406A81
:10165000816B002901D000224A6301464031C26BF0
:10166000002A01D0002353634A78602A07D1202240
:101670004A7000220A700263FFF70AF880BD002258
:101680000A700263FFF750F880BD0000F0B583B028
:1016900006464036717828220A400568282A21D15A
:1016A000A969AC69AA680292EB68FE22240CC903FE
:1016B000C90FC768022F1BD101911946029BDF0990
:1016C00067407C07A40F1FD00B46134000223270E6
:1016D0002A68B824A2432A6001991A46FEF7D9FF66
:1016E00003B0F0BD002030700820E86103B0F0BD09
:1016F000002333702B68B826B3432B601440224676
:10170000FEF7C7FF03B0F0BD826C521C8264826C8E
:10171000022AEBD1064C1A46224000238364337020
:101720000823EB610199FEF7B4FF03B0F0BDC0469A
:10173000FF03000070B50446054640356A78002076
:10174000A870D94BE3626085636C0B43636469786E
:10175000283A022A0AD82820014028291AD0F22142
:101760006A780240282A1AD1042219E0697821688F
:101770000A68FE239A430A608A69920718D48A6924
:10178000D20719D18A69012313438B616A78602AD1
:1017900024D014E042216A780240282AE4D0B422FE
:1017A0000A4321680B6893430B6068703D4815E05D
:1017B00088628A69D207E5D06A78602A0ED0202232
:1017C0006A708B699B0609D58B69DB0605D51023EA
:1017D000CB61636C04261E436664CA616063A06BC0
:1017E000226B002813D0212A01D0112A0FD10A68B8
:1017F000520404D5012292030B6893430B60FEF759
:10180000FFFD01282CD16878602816D11FE0E06B1D
:10181000002819D0222A01D0122A15D10A681204F0
:1018200004D50122D2030B6893430B60FEF7E8FD59
:10183000012829D16878602809D000202870206309
:101840002046FEF771FF70BD6878602815D1202012
:1018500068700020287020632046FEF719FF70BDD5
:1018600000202870A06B10494163FEF7A8FD0028F6
:1018700009D0A06B416B884770BD002028702063A1
:101880002046FEF751FF70BD00202870E06B06492E
:101890004163FEF794FD0028F5D0E06B416B88476B
:1018A00070BDC046291B00084D160008F0B583B076
:1018B0000291044602681768064640367078202177
:1018C0000191D161F7210140FC20C543212904D0B9
:1018D000222908D122212B4600E0AB1C7078106829
:1018E00018401060216300950123D9035068084314
:1018F000506050686B4D05405560906980070FD46B
:101900009069C007029D11D09B03780414D40F4244
:101910001BD0106888431060E76B002F12D114E0D1
:10192000002090629069C007029DEDD19069184334
:1019300090619B037804EAD5106898431060A76B08
:10194000002F02D038684068608568070ED5606A4D
:10195000526A0270606A401C6062228D0025002A73
:1019600004D0501E2085608D401E6085608D00284B
:1019700003D0606C0422024362640027B77067637F
:10198000606C002831D0616C2046FFF7D3FE707880
:10199000282849D1FA48E06227630198707067638C
:1019A000B770680712D5606A2168496A0170606A79
:1019B000401C6062208D002808D0618D491E618521
:1019C000401E2085606C042101436164707870784A
:1019D00020680168FE229143016037701021C161C7
:1019E0002046FEF7F7FE03B0F0BDE06AE44A9042FD
:1019F0000BD170780199717037702763222810D14C
:101A00002046FEF721FF03B0F0BD1046226815689E
:101A1000B7701D420AD10D42009B05460CD0DA4931
:101A200007E02046FEF711FF03B0F0BDD549009B4B
:101A30000546106808401060707829280AD12820CF
:101A400070702121216337707178014028290FD0EF
:101A50000A330EE070782A2819D1282070702221CC
:101A60002163377071780140282909D0083308E0D4
:101A7000BA331068184010602046FEF7E6FE06E014
:101A8000B8331068184010602046FEF7DDFEE562AE
:101A900001987070377027632046FEF79BFE03B0F5
:101AA000F0BDC04600E800FE0000FFFFB0B50168D1
:101AB0000C680246403200239370650403D424046A
:101AC00005D5B14C00E0AF4C0D6825400D60547851
:101AD000292C0CD1282454702125056313705378C8
:101AE0002340F422D243282B16D0921C15E05478C0
:101AF0002A2C10D1282454702225056313705378A2
:101B00002340F422D243282B00D1B0320B6813407B
:101B10000B60FEF799FEB0BDB2320B6813400B604C
:101B2000FEF793FEB0BDC046F0B583B0164604463E
:101B30004020205CE26A012802D1022003B0F0BDFF
:101B40000D46204640300127029007700E40B00637
:101B500009D52046294601943C461746FFF7A6FEC4
:101B60003A462746019CF0061AD470072AD430075B
:101B70007ED4B007029E21D5608D002800D1B8E048
:101B80002068616A0A788262481C6062208D401E6B
:101B90002085608D401E60850020307003B0F0BD50
:101BA000608D00282FD020681021C161606C042155
:101BB0000143616471480242029E61D0002030708E
:101BC00003B0F0BD608D0028029E0CD0606A2168D1
:101BD000496A0170606A401C6062208D401E208549
:101BE000608D401E6085608D0028E7D16448824288
:101BF000E4D0206802680021B170530465D4120457
:101C000067D5614A62E0029E70785D4928283FD11D
:101C1000780682423CD1E16200202063202171706D
:101C20006063B070690712D5616A2268526A0A70EF
:101C3000616A491C6162218D002908D0628D521EA3
:101C40006285491E2185616C04220A4362647178B1
:101C5000717821680A68FE239A430A603070102068
:101C6000C8612046FEF7B6FD0020307003B0F0BD1D
:101C70002046FFF70BFD029E0020307003B0F0BD40
:101C8000616C2046FFF756FD0020307003B0F0BDB8
:101C90001546727820681023C361292A8ED18D429F
:101CA0008CD08169890701D5002181628169C907CA
:101CB00002D181693943816102680021B170530406
:101CC00022D4120424D5304A1FE02E4A0368134060
:101CD00003607278292A2BD1282272702123236372
:101CE000317073781340F421C943282B1ED1B231CF
:101CF00039E02248024200D060E72046FFF7D6FED6
:101D00000020307003B0F0BD1E4A0368134003602A
:101D10007278292A0CD12822727021232363317012
:101D200073781340F421C943282B1BD0891C1AE077
:101D300072782A2A00D041E7282272702223236376
:101D4000317073781340F421C943282B00D1B0318E
:101D500002680A4002602046FEF776FD00203070DF
:101D600003B0F0BDB23102680A4002602046FEF7BF
:101D70006CFD0020307003B0F0BDC046FFFFFFFED9
:101D80000000FFFFFFBFFFFFFF7FFFFFB0B50D4665
:101D900004460846FEF724FA82B220462946FFF799
:101DA00007FCC820FEF730FB2F4964222046FFF7CE
:101DB000A9FBB0BDB0B58EB0044601AD08492846B8
:101DC000FEF7E8F90020A870064828802846FEF7AC
:101DD00007FA82B220462946FFF7EAFB0EB0B0BDF3
:101DE000080000200D0A0000B0B501242103094DB0
:101DF00000222846FEF7FDFB6420FEF705FBA10349
:101E000028462246FEF7F5FB7D200001FEF7FCFA8E
:101E1000B0BDC0460004004810B5044606A10D221E
:101E2000FFF7C6FBC820FEF7EFFAAF2082000A4991
:101E30002046FFF767FB10BD41542B51474E5353CB
:101E400052443F0D0A00000080B5AF218A000249CC
:101E5000FFF7AEFB80BDC0463006002080B50249CA
:101E60006422FFF7A5FB80BDCC050020FEE770478C
:101E7000704780B5FEF7EAFC80BD7047B0B5416A97
:101E8000CA070CD18A0714D44A071CD40A0724D4E1
:101E9000CA062CD48A0634D44A063CD44CE001222B
:101EA000520403685C689443826A22435A608A073A
:101EB000EAD50122120403685C689443C26A224393
:101EC0005A604A07E2D50122920403685C68944391
:101ED000026B22435A600A07DAD50122D203036853
:101EE0005C689443426B22435A60CA06D2D50122F1
:101EF000120303689C689443826B22439A608A06AB
:101F0000CAD50122520303689C689443C26B2243E2
:101F10009A604A0610D501221305026854689C4352
:101F2000056C2C4354609D4206D103235B05546825
:101F30009C43436C23435360090607D50121C90420
:101F4000026853688B43806C18435060B0BD00003A
:101F5000F0B583B00446064678360027F760FEF7F2
:101F600051FB03462068016809071FD528480090E7
:101F7000012002904105002220461D4600F092FA01
:101F8000002811D0EFF31080029981F310882168A6
:101F90000A6880239A430A6080F310882020E06753
:101FA0000320377003B0F0BD20682B46006840075F
:101FB00025D5174800900125A9050022204600F0EC
:101FC00071FA00281BD0EFF3108085F310880921E7
:101FD0004901226813688B43136080F31088EFF384
:101FE000108085F3108821688A68AA438A6080F38C
:101FF00010882020B0600320377003B0F0BD20208F
:10200000E067B060276667663846377003B0F0BD9A
:10201000FFFFFF0180B5406A0146523100220A816C
:1020200052214252FEF7F3FF80BDF0B581B0026845
:10203000014658318B888C6A222C0DD1928C1A4023
:10204000436D1A804A88521E4A809A1C42654A880B
:10205000002A07D001B0F0BD9069082101439161C9
:1020600001B0F0BDEFF31083012282F31088092440
:10207000640105682E68A6432E6083F31088EFF391
:10208000108382F310880468A5689543A56083F3E4
:10209000108820238B62002343668366046864688B
:1020A00024020AD5EFF3108482F31088950606689F
:1020B0003768AF43376084F31088046E012C15D164
:1020C0000366EFF3108382F31088046825681022FA
:1020D0009543256083F310880368DC69E40600D526
:1020E0001A620988FEF792FF01B0F0BDFFF73EFAD1
:1020F00001B0F0BDF0B581B00268014658318B885F
:102100008C6A222C0ED1928C1A40436D1A704A8828
:10211000521E4A80426D521C42654A88002A07D0EE
:1021200001B0F0BD906908210143916101B0F0BD9B
:10213000EFF31083012282F31088092464010568FB
:102140002E68A6432E6083F31088EFF3108382F38A
:1021500010880468A5689543A56083F31088202340
:102160008B620023436683660468646824020AD590
:10217000EFF3108482F31088950606683768AF4342
:10218000376084F31088046E012C15D10366EFF3D9
:10219000108382F310880468256810229543256017
:1021A00083F310880368DC69E40600D51A620988A5
:1021B000FEF72CFF01B0F0BDFFF7D8F901B0F0BD7C
:1021C000B0B5044600680168474A0A40A16823691F
:1021D0000B4365691D431543E1690D430560032207
:1021E000120343689343E2681A434260A269236A78
:1021F00013430B221202856895431D43856000221C
:102200003A4B984209DC3D4B984217D03C4B9842E0
:1022100014D03C4B984211D00FE0354B98420DD072
:10222000344B98420AD0344A904206D1364800686E
:102230008007000F35A2125800E010220125EB03A1
:102240003648994210D1082A49D8C0467A441279B2
:102250005200974404442044194444441F00FEF7AC
:1022600087FC002817D113E0082A38D87A4412795D
:102270005200974404342734203434342600FEF7C7
:1022800077FC00281ED11AE0FEF780FC002802D15E
:10229000002524E01846400061684A08101800F044
:1022A0005DFB0246103A1E498A4218D201400007DF
:1022B000400F084310E0FEF769FC002802D100251A
:1022C0000DE0184661684A08101800F047FB014607
:1022D0001039134A914202D22168C86000250020BB
:1022E000A066E0662846B0BDF369FFEFFF4F0040EF
:1022F00000500040001401400038014000440040FC
:1023000000480040004C0040301002400000000037
:1023100004000000080000000200000000127A0023
:10232000F0FF0000B0B55823C25241650023836618
:10233000014658314A808268002A0BD001242507C3
:10234000AA420CD02403A2420ED10269002A04D171
:102350003D4A0CE00269002A08D1FF2207E0026929
:10236000002A03D03F2202E08B8001E07F228A8096
:10237000CB6222228A62EFF31082012181F310885E
:1023800003689C680C439C6082F3108802690B030D
:1023900084689C4204D1002A14D0124A826603E069
:1023A000104B8366002A0FD0EFF3108281F3108860
:1023B00009214901006803680B43036082F3108818
:1023C0000020B0BD084A8266EFF3108281F31088C6
:1023D0000068016820230B43036082F3108800200B
:1023E000B0BDC046F52000082B200008B0B5C16F75
:1023F000212910D15221415A00290DD001465231D4
:10240000C26C1388104C1C4003681C85921CC2646B
:102410000888401E0880B0BDEFF31081012282F3CE
:10242000108803681C688025AC431C6081F3108809
:10243000EFF3108182F31088006802684023134391
:10244000036081F31088B0BDFF010000B0B5C16F1B
:1024500021290ED15221415A00290BD00146523177
:102460000268C36C1C7814855A1CC2640888401E1C
:102470000880B0BDEFF31081012282F31088036859
:102480001C688025AC431C6081F31088EFF3108139
:1024900082F310880068026840231343036081F3CD
:1024A0001088B0BDF0B587B015460F460668F169D3
:1024B0003940C91B4A424A410021AA4225D106930C
:1024C0000C9C002C24D00B46611C26D1F1693940AC
:1024D000C91B4A424A41AA4214D1F1693940C91B79
:1024E0004A424A41AA420DD1F1693940C91B4A42C8
:1024F0004A41AA4206D1F1693940C91B4A424A41C0
:10250000AA42E3D0184607B0F0BD084607B0F0BDB8
:10251000FEF778F8032007B0F0BD0293014678314A
:10252000039101210191C9020491059006E0C96956
:102530003940CA1B51425141A9424BD1FEF762F8C2
:102540000699411A0323A142DCD8059801680A685C
:102550005207ECD5CA6912073FD4CA692646049CC3
:1025600022423446E3D01F4604980862EFF31082FB
:10257000012181F3108809235B010598046825680F
:102580009D43256082F31088EFF3108281F3108859
:10259000059803689C688C439C60059882F31088BA
:1025A000026E012A0BD1EFF3108281F310880168CB
:1025B0000B681024A3430B60059882F31088202138
:1025C000039B99600022026682661A70D9603846C1
:1025D00007B0F0BD029807B0F0BD08250D62EFF31B
:1025E0001081019880F3108809225201059B1B6815
:1025F0001C6894431C6081F31088EFF3108180F312
:102600001088059A1268936883439360059B81F351
:102610001088196E01290CD1EFF31081012282F389
:1026200010881A6813681024A3431360059B81F374
:1026300010882021039A9160002119669966117013
:10264000D56007B0F0BD000080B5AE48FEF7E0FCF5
:1026500080BDC04680B5AD48FEF7DAFC80BDC046FF
:1026600098B0FEF7FDF80CAC201D2C21FDF7F8FD0D
:10267000002514951020109001260F9602200C9032
:1026800005952046FEF7A0FA002803D0EFF310804E
:1026900072B6FEE70B950A9509950724089408A8D9
:1026A0002946FEF7C9F9002803D0EFF3108072B66F
:1026B000FEE7079506952120049004A8FEF73CF953
:1026C000002803D0EFF3108072B6FEE71095B00437
:1026D0008A490A6802430A600A6802400892089818
:1026E00070040A6802430A6009680140089108986A
:1026F0002403834F384621462A46FDF77AFF0920F6
:10270000C00602900321C90203912A46FDF771FF1A
:102710000F950E950D960C940CAC38462146FDF79E
:1027200085FE0E950D95F00300900C9038462146DD
:10273000FDF77CFE0F950E9501960D9603980C9073
:1027400002982146FDF772FE0E95112000040D90AF
:1027500008200C9038462146FDF768FE69480C2495
:10276000E1214E02684942C0056045608560C46051
:10277000056145618561C5610838FEF735FE0028B1
:1027800003D0EFF3108072B6FEE76048604942C0A4
:10279000056045608560C460056145618561C5610E
:1027A0000838FEF721FE002803D0EFF3108072B640
:1027B000FEE7584E58485949B160F0603561019FB5
:1027C0007761B561F56135627562B562083630468C
:1027D000FDF7ACFF002803D0EFF3108072B6FEE7E0
:1027E00000213046FDF712FF002803D0EFF31080E0
:1027F00072B6FEE700213046FDF729FF002803D01E
:10280000EFF3108072B6FEE7FFF7EEFA79033C486B
:102810003A46FDF7EEFE7D246001FDF7F5FD0A2046
:102820000F903F480E903F480D903F480C90374D19
:102830000CA90E222846FEF7BBFEC820FDF7E4FDDA
:10284000E2003A4928460392FEF75CFE314E13E05F
:10285000FC020022029D28462146FDF7CAFEC82739
:102860003846FDF7D1FD012228462146FDF7C1FE7D
:102870003846FDF7C9FD019F009D0398FDF7C4FD93
:102880000522204C20463146FEF73CFE30462849C2
:10289000FDF7E8FC002814D030462649FDF7E2FC9D
:1028A0000028174C1AD030462349FDF7DBFC0028DE
:1028B0001AD1164821A1FFF769FA1248FFF7CEFA9C
:1028C00012E01248FFF776FAC820FDF79DFD0F22AF
:1028D00020461EA1FEF76CFE094C05E00B48FFF7F1
:1028E0009BFA0848FFF7B0FA20462946FDF774FE28
:1028F0000028ADD00128C0D13C03AAE71410024043
:1029000000040048D4000020003801405C01002091
:1029100000480040780000200E09002000540040CC
:10292000433D310D474E535341542B51E401002098
:102930009B2B0008A72B0008A12B000841542B510A
:10294000474E5353433F0D0A00000000474E535378
:102950004163746976617465640A000043088B42C0
:102960001AD3002203098B4279D3030A8B425ED328
:10297000030B8B4242D3030C8B4227D30902FF2265
:1029800012BA030C8B4202D31212090203D0030BBA
:102990008B4233D31AE0D3E0411A8041401C704788
:1029A00003460B4371D443088B42F5D3002203093D
:1029B0008B4254D3030A8B4239D3030B8B421DD372
:1029C000030C8B4202D394466EE0090AC30B8B4280
:1029D00001D3CB03C01A5241830B8B4201D38B032B
:1029E000C01A5241430B8B4201D34B03C01A5241D0
:1029F000030B8B4201D30B03C01A5241C30A8B4213
:102A000001D3CB02C01A5241830A8B4201D38B02FD
:102A1000C01A5241430A8B4201D34B02C01A5241A1
:102A2000030A8B4201D30B02C01A5241CDD2C30913
:102A30008B4201D3CB01C01A524183098B4201D38F
:102A40008B01C01A524143098B4201D34B01C01A7A
:102A5000524103098B4201D30B01C01A5241C308F2
:102A60008B4201D3CB00C01A524183088B4201D361
:102A70008B00C01A524143088B4201D34B00C01A4D
:102A80005241411A524110007047CA0F00D04942CA
:102A9000031000D34042534000229C4603098B425E
:102AA0002DD3030A8B4212D38901FC2212BA030AE6
:102AB0008B420CD3890192118B4208D38901921168
:102AC0008B4204D3890137D0921100E08909C309F0
:102AD0008B4201D3CB01C01A524183098B4201D3EF
:102AE0008B01C01A524143098B4201D34B01C01ADA
:102AF000524103098B4201D30B01C01A5241C30852
:102B00008B4201D3CB00C01A524183088B4201D3C0
:102B10008B00C01A5241D9D243088B4201D34B00DB
:102B2000C01A5241411A00D2014652411046634632
:102B30005B1000D34042704763465B1000D34042B5
:102B400001B50021004201D0C9430846C046C04635
:102B500002BD00000000000000000102030406079F
:102B6000080900000000010203040203040506072F
:102B700008090A0B0C0D0E0F1010010203040506C4
:102B80000708090A0B0C0D0E0F10636F6D6D616E57
:102B90006452656365697665640A004750534F4E19
:102BA000005F5445535400475053565700000000EF
:102BB000D02B00080000002018000000FC000008D6
:102BC000E82B000818000020D80E000018010008AB
:102BD000010000000400000041542B51474E5353A4
:082BE0004300000000127A001E
:04000005080000B936
:00000001FF
